:020000040800F2
:1000000000000220A12A000839030008310300087B
:100010003303000835030008370300080000000020
:100020000000000000000000000000003B0300088A
:100030003D030008000000003F0300086D040008B5
:10004000ED2A0008ED2A0008ED2A0008ED2A000834
:10005000ED2A0008ED2A0008ED2A0008ED2A000824
:10006000ED2A0008ED2A0008ED2A0008ED2A000814
:10007000ED2A0008ED2A000825290008ED2A0008CD
:10008000ED2A0008ED2A0008ED2A0008ED2A0008F4
:10009000ED2A0008ED2A0008ED2A0008ED2A0008E4
:1000A000ED2A0008ED2A0008ED2A0008ED2A0008D4
:1000B000ED2A0008ED2A000889040008ED2A00084E
:1000C000ED2A0008ED2A0008ED2A0008ED2A0008B4
:1000D000ED2A0008ED2A0008ED2A0008ED2A0008A4
:1000E000ED2A0008ED2A0008ED2A0008ED2A000894
:1000F000ED2A0008ED2A0008ED2A0008ED2A000884
:10010000ED2A0008ED2A0008ED2A0008ED2A000873
:10011000ED2A0008ED2A0008ED2A0008ED2A000863
:10012000ED2A0008ED2A0008ED2A0008ED2A000853
:10013000ED2A0008ED2A0008ED2A0008ED2A000843
:10014000ED2A0008ED2A0008ED2A0008ED2A000833
:10015000ED2A0008ED2A0008ED2A0008ED2A000823
:10016000ED2A0008ED2A0008ED2A0008ED2A000813
:10017000ED2A0008ED2A0008ED2A0008ED2A000803
:10018000ED2A0008ED2A0008ED2A0008ED2A0008F3
:10019000ED2A0008ED2A0008ED2A0008ED2A0008E3
:1001A000ED2A0008ED2A0008ED2A000800000000F2
:1001B0003C4B1A6842F001021A6000229A601968EA
:1001C00021F0847121F48031196037495960196830
:1001D00082B021F480211960DA60009201921A68DD
:1001E00042F480321A602F4B1A6802F400320192F6
:1001F000009A01320092019A1AB9009AB2F5A04F02
:10020000F1D11B6813F4003318BF01230193019B44
:10021000012B0CD0234B9A6822F400029A60234AE7
:10022000C3F884201A6842F080621A6030E01D4BE7
:100230001A6C42F080521A641D4A116841F4404120
:1002400011609A689A609A6842F400429A609A68CB
:1002500042F4A0529A60174A5A601A6842F08072BB
:100260001A6019680F4A8901FBD5134B40F20561EA
:100270001960936823F003039360936843F00203CB
:100280009360084B9B6803F00C03082BF9D1C1E77E
:100290001A681201FCD5094B4FF000629A6002B057
:1002A000704700BF0038024010300024804000300A
:1002B0000070004008544007003C024000ED00E0A0
:1002C000174A184B916801F00C01042903D0082942
:1002D00003D0154A18E0154A16E05068516810F42A
:1002E000800F506814BF114A0F4A01F03F01B2FB62
:1002F000F1F20B494968C1F30141C0F388100131A3
:1003000042434900B2FBF1F21A60054A9268C2F317
:1003100003121A4411791A68CA401A60704700BF64
:1003200000380240040000200024F40000127A008B
:10033000FEE7FEE7FEE7FEE770477047704770474D
:1003400038B5354B1A78012A1C4627D15A88998826
:1003500091425FD231489A804FF4FC4141839979B0
:100360002F4C34F8214004830131C9B2052988BFDC
:10037000002199710623B2FBF3F39C22B3FBF2F147
:1003800002FB113292B24D2A4FF04E02B3FBF2F152
:1003900002FB1130C0B237D9002137E01A78032AA6
:1003A00014D119894A1C92B2B1F5C87F1A8106D9B5
:1003B00000221A81194B4FF4FC425A8338BDC82AD7
:1003C00028D1164B4FF4FC421A8338BD1B7803F03A
:1003D000FF05FBB92389B3F5487F08D128464FF4C0
:1003E000FA7100F03BFC0120294600F037FC23891C
:1003F0005A1CB3F5C86F22810CD10020064B014670
:10040000188100F02BFC01204FF4FA71BDE8384050
:1004100000F024BC38BD00BF60040020001802407A
:10042000542E00080F4B1B6913F4007F0E4B4EF245
:100430000102598908BF4FF4604242EA410292B278
:10044000B2F57F4F5A8102D101229A8170474EF254
:100450000F018A4205D15A881AB99A89012A08BF20
:100460009A737047000C02406004002008B5054BE9
:100470001A6801321A60FFF763FFBDE80840FFF712
:10048000D1BF00BF2846002070472DE9F047DFF8B4
:10049000E8904022A9F81820364AD2F89870D2F88D
:1004A0009CC092F8AC5092F8A060D2F8A4400830FA
:1004B000002B54D0043B9BB230F9088C2DB118F5B9
:1004C000967FB4BF0025012504E0B8F5C87FD4BFEE
:1004D00000250125DFF8A4804FF0800A15B1A8F8A7
:1004E00018A001E0A8F81AA0DFF89480B8F800A0DE
:1004F000BAF1000F21D1AE4201D1013421E0BC425A
:1005000004D2644534BF0024012400E0022492F8A0
:10051000A86026B1174C013E84F8A8600224D2F8E6
:10052000946002EB0608013606F07F0688F810405A
:10053000C2F8946000242E4603E00AF1FF3AA8F8BE
:1005400000A030F8088CA1F800804FF00008A1F856
:100550000280A1F80480A1F806800831A7E74023B3
:1005600082F8AC5082F8A060C2F8A440A9F81A3012
:10057000BDE8F08760040020001002400004024043
:10058000180000202DE9F041174D08232B838046E9
:100590000F4600F0E9FCF32000F07AFD00242E461F
:1005A000124B1349D3F8B02061588A421D4603D13B
:1005B0006000022100F0A3FD0434302CF0D10024AF
:1005C000BC420CD258F80410D5F8B00000F07CFE04
:1005D000D5F8B0300433C5F8B0300434F0E7082360
:1005E0007383BDE8F08100BF00100240600400206A
:1005F0006C2E000808B54BF6803002F0C7F8074BA8
:1006000000BF013BFCD102F0CFF8044B00BF013B1F
:10061000FCD1BDE8084002F043B900BF40420F00E2
:1006200008B50022054840F2D56100F013F9044BEB
:1006300000221A60BDE8084000F05EB814050020F2
:100640002846002038B5144D10232B83052000F0D8
:10065000CEFB0024E0B20021013400F02AFB1A2C6A
:10066000F8D110236B8300244C2C04D8E0B24FF453
:10067000FA7100F0F3FA094900BF0139FCD1072CE7
:1006800004D9A4F10800C0B200F0E8FA0134A4B221
:10069000552CE9D138BD00BF00100240E0930400A2
:1006A000134BFF2183F8B710202183F8B8100C21D9
:1006B000C3F898100621C3F89C100421002283F887
:1006C000A8100C49C3F89420A3F8C421C3F89020C3
:1006D00083F8B620A3F8BA2083F8A020C3F8A4209A
:1006E000C3F8B0105A809A809A711A70704700BF90
:1006F0006004002000800008F7B50121324E334F1E
:10070000402001F0D5F8684600F05DFF0124002587
:100710004FF4FC433046694600938DF805508DF840
:1007200006508DF807508DF8044000F00BFF21466D
:10073000102001F0BDF86F2338466946009300F0A1
:1007400001FF102338466946009300F0FBFE214666
:10075000022001F0ADF8802369461D48009300F0A7
:10076000F1FE2146082001F0A3F88DF804508DF821
:100770000550184D8DF807404FF400732846694620
:10078000009300F0DFFE2146482001F091F841F28D
:100790000F032846694600934FF4004500F0D2FE4F
:1007A00030466946009500F0CDFE2146042001F058
:1007B0007FF8022308488DF807306946009500F05D
:1007C000C1FE03B0F0BD00BF00180240001002409F
:1007D00000040240000C024000080240144B15497E
:1007E0004FF0FF32C3F88020C3F88420C3F8802183
:1007F000C3F88421042243F8F02C0F4B1A6842F00E
:1008000001021A600D4A106801401160196821F058
:10081000847121F480311960196821F480211960F4
:10082000136823F4FE031360054B00221A6070471F
:1008300000E100E00000FFF800380240403A0240CA
:10084000803C024008B54368026882F308889847F4
:1008500008BD00BF10B51446FFF7AAFC3CB14FF02D
:1008600000604FF40041BDE8104000F021BB10BD16
:10087000054B064A5A60064AF02182F823100022EE
:100880009A6007221A60704710E000E03F90020073
:1008900000ED00E013B50220012101F009F80F4C32
:1008A0004FF44073009302238DF80430012200239B
:1008B000204669468DF805308DF807308DF8062002
:1008C00000F040FE20460821042200F0B8FE204639
:1008D0000921042200F0B3FE02B010BD0004024062
:1008E00030B5154C85B001214FF4001001F004F82B
:1008F000204601F0E1F80023ADF804304BF6FF7319
:10090000ADF806303423ADF808304FF48063ADF80D
:100910000A3004AD4FF48043ADF80C302046074B4D
:1009200045F8103D012101F071F92046694601F0BA
:10093000F1F805B030BD00BF00540040801A060039
:1009400001207047F8B5334C4FF4961307460E4616
:100950001546236030484FF4003101F06EFA28B19B
:1009600023685A1E2260002BF4D127E02A48012177
:1009700001F058F94FF4805323602748274901F0CC
:1009800048FA28B923685A1E2260002BF5D115E0D9
:100990007F0067F07F01204801F0FE01002201F096
:1009A00059F94FF4805323601B481D4901F031FA77
:1009B00030B923685A1E2260002BF5D10120F8BD02
:1009C0001548314601F0C9F94FF4805323601248AD
:1009D000144901F01EFA28B923685A1E2260002B20
:1009E000F5D1EBE70C48294601F0B7F94FF496131F
:1009F000236009480C4901F020FA28B923685A1EDF
:100A00002260002BF5D1D9E70348012101F016F946
:100A10000020F8BD1C00002000540040010003002D
:100A200082000700800007000400001038B51F4C4A
:100A30004FF49613054623601D484FF4003101F032
:100A4000FCF928B123685A1E2260002BF4D12AE059
:100A50001748012101F0E6F84FF480532360144851
:100A6000144901F0D6F928B923685A1E2260002BD8
:100A7000F5D118E06D0065F07F010D4801F0FE0131
:100A8000002201F0E7F84FF48053236008480A4938
:100A900001F0BFF928B923685A1E2260002BF5D156
:100AA00001E0002038BD012038BD00BF1C0000203F
:100AB00000540040010003008200070010B5014609
:100AC0000A4C0B4801F049F94FF480532360084861
:100AD000084901F09EF930B923685A1E2260002BA4
:100AE000F5D1012010BD002010BD00BF1C0000206A
:100AF00000540040800007000148012101F09EB829
:100B0000005400402DE9F04781460C464FF005089F
:100B100000252846FFF78AFF0620FFF7CFFF05EBE9
:100B20008506F6B246452EDA06EB460A0020FFF7A8
:100B3000C5FF0020FFF7C2FF19F81A00FFF7BEFF3C
:100B400039F81A00000A09EB4A07FFF7B7FF00203F
:100B5000FFF7B4FF0020FFF7B1FFB878FFF7AEFF53
:100B60007888000AFFF7AAFF0020FFF7A7FF002000
:100B7000FFF7A4FF3879FFF7A1FFB888000AFFF755
:100B80009DFF0136CDE7022D0BD10020FFF796FF28
:100B90000020FFF793FF94F82200FFF78FFF608C8F
:100BA0000CE0032D0DD10020FFF788FF0020FFF798
:100BB00085FF94F82000FFF781FF208C000AFFF7E3
:100BC0007DFF0135EDB2FFF797FF042D08F1050811
:100BD0009FD12846FFF72AFF0620FFF76FFF254623
:100BE00000260020FFF76AFF0020FFF767FFA05DE7
:100BF000FFF764FFA05B000AFFF760FF0020FFF72C
:100C00005DFF0020FFF75AFFA878FFF757FF6888BD
:100C1000000AFFF753FF0020FFF750FF0020FFF707
:100C20004DFF2879FFF74AFFA8880636000AFFF72C
:100C300045FF1E2E05F10605D3D10020FFF73EFF2C
:100C40000020FFF73BFFA07FFFF738FFE08B000A93
:100C5000FFF734FFBDE8F047FFF74EBF4A2838B52D
:100C60000C464FF00F0508D8B0FBF5F3C3EB0315A6
:100C700003EB05152844C5B202E0A0F14903DBB23D
:100C80001846FFF7D3FEA800063000F0FE00FFF77D
:100C900015FF0020FFF712FF0020FFF70FFFE0B263
:100CA000FFF70CFF200AFFF709FFBDE83840FFF708
:100CB00023BF1828F8B50346C1F30954C1F38925A9
:100CC000C1F3090635D80520B3FBF0F0C0EB80175F
:100CD000C0EB87073B44DFB207EB4707FFF7A6FEF1
:100CE000B800063000F0FE00FFF7E8FE0020FFF736
:100CF000E5FE0020FFF7E2FEE0B2FFF7DFFE200A8C
:100D0000FFF7DCFE0020FFF7D9FE0020FFF7D6FE3C
:100D1000E8B2FFF7D3FE280AFFF7D0FE0020FFF766
:100D2000CDFE0020FFF7CAFEF0B2FFF7C7FE300A83
:100D300039E019283DD10220FFF778FE4220FFF765
:100D4000BDFE0020FFF7BAFE0020FFF7B7FEF0B2AD
:100D5000FFF7B4FE300AFFF7B1FEFFF7CDFE032028
:100D6000FFF764FE4220FFF7A9FE0020FFF7A6FE72
:100D70000020FFF7A3FEE8B2FFF7A0FE280AFFF766
:100D80009DFEFFF7B9FE0420FFF750FE4220FFF75B
:100D900095FE0020FFF792FE0020FFF78FFEE0B2E5
:100DA000FFF78CFE200AFFF789FEBDE8F840FFF749
:100DB000A3BEF8BD002110B50A460446FFF7C2FDE8
:100DC000142100BF0139FCD120468022FFF7BAFD73
:100DD000142100BF0139FCD120462022FFF7B2FDCB
:100DE000204601211122BDE81040FFF7ABBD38B508
:100DF0000546FFF74FFDFFF773FD0024E0B2A84260
:100E000003D2FFF7D7FF0134F8E738BD02440346A9
:100E1000934202D003F8011BFAE7704710B5002394
:100E2000934203D0CC5CC4540133F9E710BD0000F9
:100E300040F0BF60024B40F40030D860704700BF04
:100E400000ED00E0C278037810B50AB3164A447882
:100E5000D268D243C2F30222C2F10401C9B204FA39
:100E600001F10F2444FA02F28478C9B222400A4305
:100E700003F1604303F561431201D2B283F800230A
:100E800003780122590903F01F0302FA03F306E075
:100E90005909012203F01F0302FA03F32031034A28
:100EA00042F8213010BD00BF00ED00E000E100E09D
:100EB00021F0604121F07F01014B084398607047A9
:100EC00000ED00E0044B1A6909B1104301E022EA89
:100ED00000001861704700BF00ED00E0044B1A6885
:100EE00004280CBF42F0040222F004021A6070478A
:100EF00010E000E0014BC0B218707047003C0240A7
:100F0000044B1A6810B142F4807201E022F480723E
:100F10001A607047003C0240044B1A6810B142F45A
:100F2000007201E022F400721A607047003C024037
:100F3000044B1A6810B142F4806201E022F480622E
:100F40001A607047003C0240024B1A6842F400628B
:100F50001A607047003C0240024B1A6842F480520B
:100F60001A607047003C0240044B1A69002A04DAF8
:100F7000034A5A6002F188325A607047003C0240CE
:100F800023016745024B1A6942F000421A6170471B
:100F9000003C0240044B5A69D20704D5034A9A60C8
:100FA00002F144329A607047003C02403B2A190823
:100FB000024B5A6942F001025A617047003C0240FC
:100FC000034B1A7802F07F0210431870704700BF7D
:100FD000173C0240044B1A7802F0EF021A701A789C
:100FE00010431870704700BF143C0240044B1A783D
:100FF00002F0F3021A701A7810431870704700BF9D
:10100000143C0240024B5869C0F34710704700BFC0
:10101000003C0240014B188880B27047163C0240E9
:10102000014B188880B270471A3C0240014B188867
:1010300080B27047163C0240014B188880B270475E
:101040001A3C0240024B1878AA3818BF012070479A
:10105000153C0240024B187800F00C00704700BFAE
:10106000143C0240044B1A6909B1104301E022EA22
:1010700000001861704700BF003C0240034BDB6872
:1010800018420CBF00200120704700BF003C024006
:10109000014BD860704700BF003C02400E4BDA683D
:1010A000D00310D4DA68D1060FD4DA68D2050ED492
:1010B000DA6812F0EF0F0CD1DB6813F0020F0CBFEF
:1010C0000920082070470120704706207047022041
:1010D00070470720704700BF003C024007B5092356
:1010E0008DF80730FFF7DAFF8DF807009DF807301D
:1010F000012BF7D09DF8070003B05DF804FB70B535
:10110000064641B1012908D0022914BF4FF44075A9
:101110004FF4007503E00D4601E04FF48075FFF7D2
:10112000DDFF09281ED1104C236923F4407323618D
:1011300021690D432561236923F0F80323612369A5
:1011400043F002031E432661236943F48033236185
:10115000FFF7C4FF236923F002032361236923F00F
:10116000F803236170BD00BF003C024010B5044687
:10117000FFF7B4FF44B1012C08D0022C14BF4FF488
:1011800040734FF4007303E0234601E04FF4807393
:10119000092819D10D4C226922F44072226122697A
:1011A00013432361236943F4004343F004032361A1
:1011B000236943F480332361FFF790FF236923F40D
:1011C000004323F00403236110BD00BF003C024034
:1011D00010B50446FFF782FF44B1012C08D0022C61
:1011E00014BF4FF440734FF4007303E0234601E053
:1011F0004FF48073092815D10B4C226922F44072F8
:101200002261226913432361236943F004032361AC
:10121000236943F480332361FFF760FF236923F0E0
:101220000403236110BD00BF003C024010B504461A
:10123000FFF754FF44B1012C08D0022C14BF4FF427
:1012400040734FF4007303E0234601E04FF48073D2
:10125000092815D10B4C226922F4407222612269BF
:1012600013432361236943F400432361236943F457
:1012700080332361FFF732FF236923F400432361A6
:1012800010BD00BF003C0240F8B5074614461D469D
:10129000FFF724FF092814D10A4E336923F4407361
:1012A0003361336943F440733361336943F00103BD
:1012B0003361C7E90045FFF711FF336923F00103EC
:1012C0003361F8BD003C024070B505460E46FFF79D
:1012D00005FF092813D10A4C236923F440732361C5
:1012E000236943F400732361236943F001032361FD
:1012F0002E60FFF7F3FE236923F00103236170BD25
:10130000003C024070B505460E46FFF7E7FE09288F
:1013100013D10A4C236923F440732361236943F4F6
:1013200080732361236943F0010323612E80FFF75B
:10133000D5FE236923F00103236170BD003C024008
:1013400070B505460E46FFF7C9FE092811D1094CB4
:10135000236923F44073236123692361236943F0E4
:10136000010323612E70FFF7B9FE236923F0010307
:10137000236170BD003C024038B504460D46FFF7BE
:10138000ADFE092809D1054B1A881DB192B222EA97
:10139000040401E01443A4B21C8038BD163C024092
:1013A00038B504460D46FFF799FE092809D1054BCB
:1013B0001A881DB192B222EA040401E01443A4B2D7
:1013C0001C8038BD1A3C024038B504460D46FFF774
:1013D00085FE092809D1054B1A8815B11443A4B21A
:1013E00002E092B222EA04041C8038BD163C02409E
:1013F00038B504460D46FFF771FE092809D1054BA3
:101400001A8815B11443A4B202E092B222EA04048D
:101410001C8038BD1A3C024010B50446FFF75EFE42
:10142000092804BF014B1C7010BD00BF153C0240D1
:1014300070B504460D461646FFF750FE092807D141
:10144000044B1A7802F01F021443264335431D70E3
:1014500070BD00BF143C0240034B1A7842F00202F8
:101460001A70FFF73BBE00BF143C024008B52C4B7E
:10147000984205D10120014600F056FA012048E0CB
:10148000284B984205D10220012100F04DFA02209C
:101490003FE0254B984205D10420012100F044FA99
:1014A000042036E0214B984205D10820012100F0AC
:1014B0003BFA08202DE01E4B984205D11020012157
:1014C00000F032FA102024E01A4B984205D1202077
:1014D000012100F029FA20201BE0174B984205D18A
:1014E0004020012100F020FA402012E0134B9842E6
:1014F00005D18020012100F017FA802009E0104B6F
:1015000098420BD14FF48070012100F00DFA4FF496
:1015100080700021BDE8084000F006BA08BD00BF99
:10152000000002400004024000080240000C02409B
:10153000001002400014024000180240001C02404B
:10154000002002402DE9F0410F68002301229A405B
:1015500002EA0705954231D15A00032406689440F7
:10156000E443264006600E79D0F800C006FA02F87F
:10157000013EF6B248EA0C0C012EC0F800C014D8A7
:10158000866891F805C02640866086680CFA02FCE1
:101590004CEA06068660466826EA050545608D79B0
:1015A00046689D40ADB235434560C5682C40C46077
:1015B000CD79C46805FA02F22243C2600133102BD0
:1015C000C4D1BDE8F0814FF6FF73036000230371BF
:1015D00043718371C371704782B04FF480330193BC
:1015E000019B0B430193019BC361C161019BC361DB
:1015F000C3690193C369019302B07047036919423B
:101600000CBF002001207047006980B27047436919
:1016100019420CBF002001207047406980B270471A
:1016200001837047418370470AB10183704741834A
:10163000704741617047436959404161704701F00B
:101640000703C90800EB810010B59B00046A0F2155
:10165000994024EA01010162016A9A401143016242
:1016600010BD00BF0A4B1A68002142F001021A6047
:1016700099601A6822F0847222F480321A60054A56
:101680005A601A6822F480221A60D960704700BF3D
:101690000038024010300024024B00221A701870EB
:1016A000704700BF02380240034B1A6822F0F8026C
:1016B00042EAC0001860704700380240014B1860D1
:1016C000704700BF00004742064B002201281A70F5
:1016D0001A7002D0042802D0704718707047052293
:1016E0001A70704770380240014B1860704700BF95
:1016F000800E474210B5029C40EA046001435B083B
:10170000013B41EA821242EA0344014B5C6010BD96
:1017100000380240014B1860704700BF600047422C
:101720000907034B41EA8010C3F88400704700BFEB
:1017300000380240014B1860704700BF6800474204
:10174000014B1860704700BF4C004742034B9A683A
:1017500022F0EC6211430843986070470038024061
:10176000034B9A6822F0784211430843986070470F
:1017700000380240034B9A6822F00302104398603D
:10178000704700BF00380240024B986800F00C0020
:10179000704700BF00380240034B9A6822F0F00205
:1017A00010439860704700BF00380240034B9A68AE
:1017B00022F4E05210439860704700BF00380240A6
:1017C000034B9A6822F4604242EAC0009860704776
:1017D000003802401D4B9A6802F00C02042A10B532
:1017E00003D0082A03D01A4B18E01A4B16E05968A8
:1017F0005A6811F4800F596814BF164B144B02F04D
:101800003F02B3FBF2F3114A5268C2F30142C1F343
:10181000881101324B435200B3FBF2F30B490360D2
:101820008B680D4AC3F30313D45C0368E340436041
:101830008C68C4F38224145D23FA04F484608968FC
:10184000C1F34231525CD340C36010BD0038024046
:101850000024F40000127A002000002000F44073FD
:10186000B3F5407F084B08D1996820F0704221F40D
:10187000F81122F440720A439A601A6FC0F30B0009
:1018800010431867704700BF00380240014B1860D2
:10189000704700BF3C0E4742014B1860704700BFC5
:1018A000400E4742014B1860704700BF5C01474241
:1018B000044B1A6B09B1104301E022EA00001863DF
:1018C000704700BF00380240044B5A6B09B1104307
:1018D00001E022EA00005863704700BF0038024070
:1018E000044B9A6B09B1104301E022EA00009863AF
:1018F000704700BF00380240044B1A6C09B1104316
:1019000001E022EA00001864704700BF003802407E
:10191000044B5A6C09B1104301E022EA00005864FC
:10192000704700BF00380240044B1A6909B11043E8
:1019300001E022EA00001861704700BF0038024051
:10194000044B5A6909B1104301E022EA00005861D2
:10195000704700BF00380240044B9A6909B1104338
:1019600001E022EA00009861704700BF00380240A1
:10197000044B1A6A09B1104301E022EA0000186220
:10198000704700BF00380240044B5A6A09B1104347
:1019900001E022EA00005862704700BF00380240B0
:1019A000044B1A6D09B1104301E022EA00001865EA
:1019B000704700BF00380240044B5A6D09B1104314
:1019C00001E022EA00005865704700BF003802407D
:1019D000044B9A6D09B1104301E022EA00009865BA
:1019E000704700BF00380240044B1A6E09B1104323
:1019F00001E022EA00001866704700BF003802408C
:101A0000044B5A6E09B1104301E022EA0000586607
:101A1000704700BF00380240044B1A7809B11043E8
:101A200001E022EA00001870704700BF0D38024044
:101A30004309012B074A01D1136803E0022B0CBFB5
:101A4000136F536F00F01F0023FA00F000F0010045
:101A5000704700BF0038024007B5002301933120D2
:101A6000FFF7E6FF019B01330193019BB3F5A04F04
:101A700001D00028F3D03120FFF7DAFF003018BF83
:101A8000012003B05DF804FB024B5A6F42F08072F4
:101A90005A67704700380240034BDB6818420CBF9E
:101AA00000200120704700BF00380240014B187031
:101AB000704700BF0E38024008B5134B984207D15B
:101AC0004FF400100121FFF753FF4FF4001014E012
:101AD0000E4B984207D14FF480000121FFF748FFD9
:101AE0004FF4800009E00A4B98420BD14FF40000FC
:101AF0000121FFF73DFF4FF400000021BDE8084041
:101B0000FFF736BF08BD00BF00540040005800403A
:101B1000005C0040F0B585B004468688324F6846C8
:101B20000D46FFF757FE02982A68304B26F03F0615
:101B30003604B0FBF7F7360C1FFA87FC4CEA0606B2
:101B4000A680218821F001010904090C9A42218014
:101B50000DD85300B0FBF3F39BB20CF1010C032B37
:101B60001FFA8CFC98BF0423A4F820C022E0E98867
:101B70004BF6FF73994205D102EB4202B0FBF2F340
:101B80009BB206E019235343B0FBF3F39BB243F43B
:101B90008043C3F30B020AB943F001034FF496727A
:101BA00057434FF47A7297FBF2F70137BFB243F411
:101BB00000432784A38323886989AA889BB243F0C2
:101BC00001032380238823F4816323F002031B0491
:101BD0000A431B0C13439BB223802A89AB8913430E
:101BE0009BB2238105B0F0BD40420F00A0860100EA
:101BF00041F288330360002383804BF6FF72038138
:101C000043814FF48043C28083817047038819B1B8
:101C10009BB243F0010303E023F001031B041B0C00
:101C200003807047038819B19BB243F4807303E0CB
:101C300023F480731B041B0C03807047038819B1C5
:101C40009BB243F4007303E023F400731B041B0CEA
:101C50000380704712B141F0010101E001F0FE0183
:101C600001827047038819B19BB243F4806303E09B
:101C700023F480631B041B0C0380704783899BB291
:101C800001F0FE0123F0FE030B438381704783893B
:101C900019B19BB243F0010303E023F001031B04DD
:101CA0001B0C83817047038819B19BB243F040033A
:101CB00003E023F040031B041B0C038070470388E0
:101CC00029B16FEA43436FEA53439BB201E0C3F388
:101CD0000E0303807047038819B99BB243F0800359
:101CE00003E023F080031B041B0C03807047B1F555
:101CF000804F838B04D023F480431B041B0C02E031
:101D00009BB243F4804383837047B1F5006F03882F
:101D100003D19BB243F4006303E023F400631B048C
:101D20001B0C03807047B1F5005F038803D19BB2A1
:101D300043F4005303E023F400531B041B0C038003
:101D40007047038819B19BB243F0100303E023F0FE
:101D500010031B041B0C0380704701827047008A2C
:101D6000C0B27047038819B19BB243F4805303E0BB
:101D700023F480531B041B0C03807047B1F5006FE4
:101D8000038803D19BB243F4006303E023F40063B0
:101D90001B041B0C03807047038819B19BB243F0EE
:101DA000200303E023F020031B041B0C0380704777
:101DB000008BC0F307207047838819B19BB243F4AE
:101DC000006303E023F400631B041B0C8380704753
:101DD000838819B19BB243F4805303E023F480530A
:101DE0001B041B0C8380704782B000230193019079
:101DF000019B19440191019B188880B202B0704781
:101E000083889BB20AB1194301E023EA0101818072
:101E10007047828A008B92B221F07F4342EA0040F1
:101E20001840431A584258417047838A008B9BB22E
:101E300043EA004020F07F40704782B000230093C7
:101E400001930B0F01900093009B21F07F4113B190
:101E5000019B143302E0019B090C18330193019B91
:101E60001B6819420CBF0020012002B07047C94313
:101E700089B2818270478388808A80B208409BB291
:101E800006D001F0E06113EA11410CBF00200120EF
:101E90007047C94389B28182704700BF08B5154BAE
:101EA00098420BD14FF480500121FFF76DFD4FF4A4
:101EB00080500021BDE80840FFF766BD0E4B9842F8
:101EC00007D14FF480400121FFF752FD4FF48040CD
:101ED00009E00A4B98420BD14FF400400121FFF773
:101EE00047FD4FF400400021BDE80840FFF740BD2A
:101EF00008BD00BF0030014000380040003C0040F9
:101F00000B88028810B54C8823438C882343CC88E7
:101F100023430C8923434C8923438C892343CC8955
:101F200002F44152234313439BB20380838B23F477
:101F300000631B041B0C83830B8A038210BD838BFD
:101F400023F47B6323F00F031B041B0C8383022306
:101F500003848B68F0B5858B022BADB238D08A88AC
:101F6000002A294A946814BF02260126240203D5B8
:101F7000946824F400049460D2F88440D2F8847009
:101F80005268DFF888C002F03F02BCFBF2F2C4F3F3
:101F900088145443C7F30272B4FBF2F4CA88B2F552
:101FA000007F18BF76014FF00A020CBF240AB4FB71
:101FB000F6F46243B2FBF3F305330A229BB2B3FBA0
:101FC000F2F303F001021202C3F34F0392B200E0F6
:101FD00000229C1EA4B2FE2C28BF0022CC8828BF61
:101FE0000223134323430A889BB2038445EA020376
:101FF0004A8843F4006313438A8813438A8913434E
:102000009BB28383F0BD00BF0038024000127A000B
:102010000023038043808380C380038143818381C5
:10202000C381072303827047002302220380438079
:102030008380C380826083817047038819B19BB21B
:1020400043F0400303E023F040031B041B0C038018
:102050007047838B19B19BB243F4806303E023F490
:1020600080631B041B0C83837047038823F4006385
:102070001B041B0C038003889BB21943018070472B
:10208000B1F5804F038803D19BB243F4804303E052
:1020900023F480431B041B0C038070474FF6FF633F
:1020A0009942038803D09BB243F4807303E023F486
:1020B00080731B041B0C03807047838819B19BB28B
:1020C00043F0040303E023F004031B041B0C838090
:1020D0007047838819B19BB243F0100303E023F0EB
:1020E00010031B041B0C83807047838B0A8823F426
:1020F0007B6323F00F031B041B0C838302230384E5
:10210000838B10B54C889BB223438C88898922F439
:10211000007243F4006392B22343002A43EA0103AE
:1021200014BF00224FF480729BB21343838310BD0F
:10213000808980B2704781817047038819B19BB252
:1021400043F4005303E023F400531B041B0C0380EF
:10215000704703889BB243F4805303807047012982
:1021600014BF008B808A80B27047008A80B27047AB
:1021700083889BB20AB1194301E023EA01018180FF
:102180007047090901238B409BB21AB1828892B231
:10219000134303E0828892B222EA030383807047EC
:1021A000038919420CBF002001207047C94389B23E
:1021B0000181704710B58488008901F00F02012366
:1021C00080B203FA02F21040A4B205D009098B4094
:1021D0001C420CBF0020012010BD01F00F010123A3
:1021E0008B40DB439BB20381704700BF036823F041
:1021F000010303600023036043608360C3600361E5
:1022000021234361294B984217D0294B98421BD078
:10221000284B984220D0284B984225D0274B9842F3
:102220002AD0274B98422ED0264B984232D0264BAC
:10223000984236D0254B984203D13D2243F8082CD2
:102240007047234B984204D14FF4746243F8202C1A
:102250007047204B984204D14FF4741243F8382C45
:1022600070471D4B984204D14FF0746243F8502CD4
:1022700070471A4B984203D1194A43F8642C7047AF
:10228000184B984203D1184A43F87C2C7047174BDF
:10229000984203D1164A43F8942C7047154B984244
:1022A00003D14FF03D5243F8AC2C70471060024010
:1022B0002860024040600240586002407060024066
:1022C00088600240A0600240B86002401064024092
:1022D0002864024040640240586402407064024036
:1022E0003D00002088640240400F0020A0640240AE
:1022F00000003D20B86402400268134B10B5134043
:10230000CC680A6814434A6914438A691443CA6949
:1023100014430A6A14434A6A14438A6A14434A6B90
:1023200014438A6B22431343036044690A6BCB6AEC
:1023300024F007041343234343610B6943604B6854
:1023400083608B68C36010BD3F801CF00023036076
:1023500043608360C360036143618361C36103625F
:1023600043628362C36203634363836370470368AA
:1023700011B143F0010301E023F001030360704752
:10238000036811B143F4004301E023F40043036008
:102390007047036811B143F0200301E023F02003EC
:1023A0000360704741607047406880B270470368BF
:1023B00012B143F4002301E023F400230360016120
:1023C0007047036811B143F4802301E023F48023B4
:1023D000036070470AB101617047C16070470068CF
:1023E000C0F3C0407047006800F0010070474069CA
:1023F00000F0380070470A4B0A4A10B50A4CA04258
:102400008CBF104618468B004CBF4368036821F010
:10241000F02121F0821119420CBF0020012010BDD3
:1024200000600240006402400F64024010B5084B97
:10243000084A094CA0428CBF1046184611F0005FB4
:1024400021F0F02121F0821114BFC160816010BD24
:1024500000600240006402400F6402400B0611D588
:1024600043694AB143F080038029436114D0036873
:1024700001F01E0119430EE023F08003802943611F
:1024800004D17047802907D0002AF0D1036801F0F9
:102490001E0123EA01010160704730B5104B114A5B
:1024A000114D21F0F024A8428CBF15461D4624F0A2
:1024B000C3132BB1026802F01E0202EAD12202E02D
:1024C000426902F080028B004CBF6B682B6824F0DD
:1024D0008210184002D0101C18BF012030BD00BF70
:1024E00000600240006402400F64024010B5084BD7
:1024F000084A094CA0428CBF1046184611F0005FF4
:1025000021F0F02121F0821114BFC160816010BD63
:1025100000600240006402400F64024001207047E6
:1025200070B5334C4FF4961306460D462360314880
:102530004FF40031FFF781FC30B123685A1E22604E
:10254000002BF4D1012070BD2A480121FFF76AFB5E
:102550004FF48053236027482749FFF75AFC28B9D6
:1025600023685A1E2260002BF5D1EBE72148342165
:102570000022FFF76FFB4FF4805323601D481F4973
:10258000FFF747FC28B923685A1E2260002BF5D1BB
:10259000D8E7C5F3002343EA46011648C9B2FFF75E
:1025A000DCFB4FF48053236012481549FFF731FCE0
:1025B00028B923685A1E2260002BF5D1C2E70D48C6
:1025C000E9B2FFF7CAFB4FF49613236009480D499F
:1025D000FFF733FC28B923685A1E2260002BF5D17F
:1025E000B0E704480121FFF729FB002070BD00BFC0
:1025F0003000002000580040010003008200070066
:10260000800007000400001010B50F200021FFF724
:1026100087FF0024044BE0B233F814100134FFF7B5
:102620007FFF0A2CF6D110BD9C2E000830B5154C4A
:1026300085B001214FF48000FFF75EF92046FFF7D7
:102640003BFA0023ADF804304BF6FF73ADF80630CB
:102650003323ADF808304FF48063ADF80A3004AD91
:102660004FF48043ADF80C3020464CF2503301213A
:1026700045F8103DFFF7CAFA20466946FFF74AFAC7
:1026800005B030BD0058004030B5124C85B005464D
:1026900001214FF48040FFF72FF92046FFF7FEFBA2
:1026A00000230322ADF80230ADF80C3020464FF481
:1026B00000736946ADF80420ADF80030ADF806307F
:1026C0000295FFF73CFC04486946FFF70EFD05B094
:1026D00030BD00BF003800400034004073B52A4CC4
:1026E00006200121FFF7E4F84FF440630025009332
:1026F00002260123204669468DF806308DF80550E4
:102700008DF807508DF80460FEF71CFF20460A2163
:102710000422FEF794FF042220460B21FEF78FFFD0
:102720008DF805508DF806508DF8075005F180455D
:102730004FF470432046694605F5023500938DF845
:102740000460FEF7FFFE4023284669460093FEF72B
:10275000F9FE20460C210522FEF771FF20460D21CF
:102760000522FEF76CFF20460F210522FEF767FFCA
:1027700020460E210522FEF762FF2846062105228B
:10278000FEF75DFF02B070BD0004024010B50446C4
:10279000FFF7A4FFFFF74AFF2046FFF775FFBDE8EC
:1027A0001040FFF731BF00BF2DE9F84F344D4FF413
:1027B00000100121FFF77CF828460021FFF7D7FD24
:1027C0002846FFF713FD2F492F4B4B600024402371
:1027D0004FF6FE7B4FF4806A4FF400694FF40058C7
:1027E0004FF480774FF400362846CB60183D0C60DC
:1027F0008C60C1F810B04C61C1F818A0C1F81C90F1
:10280000C1F820804F628E62CC620C634C638C6393
:10281000FFF772FD01221D480221FFF7A9FC2146A6
:102820002846FFF7A4FD2846FFF7E0FC1849194B9E
:102830008C604FF0C062284681E80C00CC60C1F883
:1028400010B04C61C1F818A0C1F81C90C1F82080EC
:102850004F628E62CC620C634C638C63FFF74CFD5D
:1028600028469E210122FFF7F9FD0B4B0B484FF440
:10287000804201211A600A46BDE8F84FFFF778BC94
:1028800070600240C84600200C380040003800400C
:10289000504600200C34004000E100E000340040CD
:1028A000164A1749174838B5174B1360174A184D81
:1028B0008B60082415600C61FFF71EFD1549164852
:1028C0008D600C61FFF718FD0E480121FFF74FFDE9
:1028D00011480121FFF74BFD1048838B5A0502D4A4
:1028E0000121FFF7B6FB0E48838B5B0504D4012161
:1028F000BDE83840FFF7ADBB38BD00BF044700203E
:10290000C846002070600240404600202C4600204F
:1029100030460020504600205860024000380040F9
:102920000034004008B515484FF0C051FFF763FD73
:1029300070B1134B1868134B196808300831002226
:102940000423FDF7A2FD0D484FF0C051FFF76EFDC7
:102950000A484FF0A051FFF74EFD70B1084B1868C0
:10296000084B012219680423FDF78FFD03484FF03F
:10297000A051BDE80840FFF759BD08BD58600240AE
:102980002C4600200447002010B5C0430A44914261
:1029900009D011F8014B054B4440E4B253F8243000
:1029A00083EA1020F3E7C04310BD00BFB02E00083B
:1029B00043780B41DB0701D4032310E0012914D035
:1029C00015D3022918D1838801339BB242F2CE324B
:1029D0009342838005D9B0F80E3113B105230370FB
:1029E000704707234370202305E0417001E0022374
:1029F00043708378013B837083782BB90122027086
:102A0000A0F80C31C37183717047037810B50A4682
:102A1000044613B1012B03D03FE0FFF7C9FF3CE0B0
:102A2000022902D10323037037E0B0F80C114318D8
:102A3000D8790243A079DA710130C0B20828A071B8
:102A400029D14B1C9BB20020B3F5827FA071A4F862
:102A50000C311DD14FF48072E11DFFF795FF94F802
:102A6000083194F807211B0443EA026394F80A2111
:102A7000134394F8092143EA0223984214BF042027
:102A80000220B4F80E3120700133A4F80E3104E0B6
:102A90002344D87101E05200DA71207810BD00BFE4
:102AA000002100F004B80C4B5B58435004310B4834
:102AB0000B4B42189A42FFF4F6AF0A4A00F003B8F3
:102AC000002342F8043B084B9A42FFF4F9AFFDF7AC
:102AD0006FFB00F011F87047F03200080000002092
:102AE000600400206004002050470020FFF7FEBF74
:102AF00070477047704700002DE9F041FDF790FDE9
:102B0000FDF7CEFD40F6A1730024013B05D06F4ACE
:102B100012699705F8D40134F7E7B4F5FA6F6C4DF4
:102B20008CBF00230123AB7373B96A4B6F225A83A6
:102B30004FF4FC42A3F81A28FDF784FDFDF75AFD77
:102B400005F1B400FDF794FE40F6A173013B06D0F9
:102B50005E4A1269960554BF01340024F6E7B4F5C5
:102B6000FA6F8CBF00240124AC73AB81AF7B002FC4
:102B700030D1D5F89420D5F890305548D31A5C065A
:102B800004D02FB9837B002BF0D13FE0002FEDD094
:102B900002232B704F4B01221A834C4A116988057E
:102BA000FBD40121598311698905FCD56F225A8311
:102BB000494B4FF4FC425A830024E0B20021013417
:102BC000FEF777F81A2CF8D1FDF76AFD0023AB81E8
:102BD000AB73CBE7404B4FF4FC425A83FDF7FEFD4D
:102BE0003E48FDF72FFE4FF0FF33B3F5FA6F3A4A38
:102BF00007D80133B3F57A7F04D94FF4FC415183F0
:102C0000F3E700234FF4FC411183EEE7D0F8903056
:102C1000C218013303F07F03C0F89030117CB63046
:102C2000FFF7F3FE02380328A3D8DFE800F00241E3
:102C300043486E88264C06F03F0004F5E3780136E1
:102C40000123B6B208EB002004F1BD014FF48072FD
:102C50002B70FEF7E3F86E8016F03F061CD10323BD
:102C600040464FF480412370FDF78CFCFF2384F82D
:102C7000B730202384F8B8300423C4F8946084F873
:102C8000B660A4F8BA60C4F8906084F8A060C4F894
:102C9000A46084F8A8306CE7002384F8B630A4F868
:102CA000BA30FF2384F8B730202384F8B83060E7C7
:102CB000022200E00422074B01271A8359E701236F
:102CC000AB73044B6F221A8353E700BF000C024022
:102CD000600400200010024000180240008000083C
:102CE00038B50B4D0B4C0C49224605F1B40000F0F1
:102CF00019F8224605F1B600084900F013F805F16D
:102D0000100022460649BDE8384000F00BB800BF6D
:102D10006004002000000020F12A0008F32A0008C7
:102D2000F52A000808402DE90030A0E10100A0E1EB
:102D30000310A0E1010000EB0840BDE81EFF2FE1F9
:102D400008402DE901C0A0E10230A0E10010A0E19F
:102D50000C20A0E10200A0E3010000EB0840BDE868
:102D60001EFF2FE1E0C09FE570402DE900509CE57B
:102D700048C195E500005CE353CF850204409CE523
:102D800048C185051F0054E310D04DE20060A0E16A
:102D9000160000DAB4009FE5000050E30300001ABB
:102DA0000000E0E310D08DE27040BDE81EFF2FE18F
:102DB000190EA0E30C108DE508208DE504308DE59B
:102DC00000F020E300C050E20C109DE508209DE5D6
:102DD00004309DE5F1FFFF0A480195E50040A0E3BE
:102DE00011008CE848C185E588418CE58C418CE573
:102DF000000056E30700001A013084E20000A0E35F
:102E0000024084E204308CE504118CE710D08DE29E
:102E10007040BDE81EFF2FE10150A0E31554A0E172
:102E200004018CE0882080E588219CE5052082E172
:102E300088218CE5083180E5020056E38C319C0541
:102E4000055083018C518C05EAFFFFEAB43200087B
:102E50000000000000020000000400000008000064
:102E600000100000002000000040000000000008EA
:102E7000004000080080000800C0000800000108B1
:102E8000000002080000040800000608000008080E
:102E900000000A0800000C0800000E0817001700C8
:102EA0002F002F001200000062000A000000010045
:102EB00000000000963007772C610EEEBA51099998
:102EC00019C46D078FF46A7035A563E9A395649EF4
:102ED0003288DB0EA4B8DC791EE9D5E088D9D29718
:102EE0002B4CB609BD7CB17E072DB8E7911DBF9074
:102EF0006410B71DF220B06A4871B9F3DE41BE8498
:102F00007DD4DA1AEBE4DD6D51B5D4F4C785D383F3
:102F100056986C13C0A86B647AF962FDECC9658A97
:102F20004F5C0114D96C0663633D0FFAF50D088DF3
:102F3000C8206E3B5E10694CE44160D5727167A297
:102F4000D1E4033C47D4044BFD850DD26BB50AA5F3
:102F5000FAA8B5356C98B242D6C9BBDB40F9BCAC17
:102F6000E36CD832755CDF45CF0DD6DC593DD1AB73
:102F7000AC30D9263A00DE518051D7C81661D0BF97
:102F8000B5F4B42123C4B3569995BACF0FA5BDB8F3
:102F90009EB802280888055FB2D90CC624E90BB197
:102FA000877C6F2F114C6858AB1D61C13D2D66B6F3
:102FB0009041DC760671DB01BC20D2982A10D5EF57
:102FC0008985B1711FB5B606A5E4BF9F33D4B8E8B3
:102FD000A2C9077834F9000F8EA8099618980EE157
:102FE000BB0D6A7F2D3D6D08976C6491015C63E6B3
:102FF000F4516B6B62616C1CD83065854E0062F2D7
:10300000ED95066C7BA5011BC1F4088257C40FF532
:10301000C6D9B06550E9B712EAB8BE8B7C88B9FC56
:10302000DF1DDD62492DDA15F37CD38C654CD4FBB2
:103030005861B24DCE51B53A7400BCA3E230BBD456
:1030400041A5DF4AD795D83D6DC4D1A4FBF4D6D3B2
:103050006AE96943FCD96E34468867ADD0B860DA56
:10306000732D0444E51D03335F4C0AAAC97C0DDDB2
:103070003C710550AA41022710100BBE86200CC9D6
:1030800025B56857B3856F2009D466B99FE461CE32
:103090000EF9DE5E98C9D9292298D0B0B4A8D7C756
:1030A000173DB359810DB42E3B5CBDB7AD6CBAC0B2
:1030B0002083B8EDB6B3BF9A0CE2B6039AD2B174CE
:1030C0003947D5EAAF77D29D1526DB048316DC732A
:1030D000120B63E3843B64943E6A6D0DA85A6A7ACE
:1030E0000BCF0EE49DFF099327AE000AB19E077D2A
:1030F00044930FF0D2A3088768F2011EFEC206694E
:103100005D5762F7CB67658071366C19E7066B6EA9
:10311000761BD4FEE02BD3895A7ADA10CC4ADD67CD
:103120006FDFB9F9F9EFBE8E43BEB717D58EB06029
:10313000E8A3D6D67E93D1A1C4C2D83852F2DF4FCD
:10314000F167BBD16757BCA6DD06B53F4B36B24829
:10315000DA2B0DD84C1B0AAFF64A0336607A0441CD
:10316000C3EF60DF55DF67A8EF8E6E3179BE694629
:103170008CB361CB1A8366BCA0D26F2536E268524D
:1031800095770CCC03470BBBB91602222F260555A9
:10319000BE3BBAC5280BBDB2925AB42B046AB35CCD
:1031A000A7FFD7C231CFD0B58B9ED92C1DAEDE5B29
:1031B000B0C2649B26F263EC9CA36A750A936D020D
:1031C000A906099C3F360EEB856707721357000569
:1031D000824ABF95147AB8E2AE2BB17B381BB60C8D
:1031E0009B8ED2920DBED5E5B7EFDC7C21DFDB0BE9
:1031F000D4D2D38642E2D4F1F8B3DD686E83DA1F0D
:10320000CD16BE815B26B9F6E177B06F7747B71868
:10321000E65A0888706A0FFFCA3B06665C0B01110C
:10322000FF9E658F69AE62F8D3FF6B6145CF6C1668
:1032300078E20AA0EED20DD75483044EC2B303390C
:10324000612667A7F71660D04D476949DB776E3E68
:103250004A6AD1AEDC5AD6D9660BDF40F03BD8378C
:1032600053AEBCA9C59EBBDE7FCFB247E9FFB530E8
:103270001CF2BDBD8AC2BACA3093B353A6A3B4240C
:103280000536D0BA9306D7CD2957DE54BF67D92368
:103290002E7A66B3B84A61C4021B685D942B6F2A0C
:1032A00037BE0BB4A18E0CC31BDF055A8DEF022D68
:1032B00043000000380000200DC0A0E1F8DF2DE938
:1032C00004B04CE228D04BE2F06F9DE81EFF2FE1E6
:1032D0000DC0A0E1F8DF2DE904B04CE228D04BE2AC
:1032E000F06F9DE81EFF2FE10000000000000000CD
:1032F00000000000007A030A000000000000000047
:103300000102030406070809401F000000C0120064
:10331000000000000102030401020304060708097B
:1033200000C0120000000000000000002403002084
:103330008C030020F40300200000000000000000C7
:10334000000000000000000000000000000000007D
:10335000000000000000000000000000B032000883
:10336000000000000000000000000000000000005D
:10337000000000000000000000000000000000004D
:10338000000000000000000000000000000000003D
:10339000000000000000000000000000000000002D
:1033A000000000000000000000000000000000001D
:1033B000000000000000000000000000000000000D
:1033C00000000000000000000000000000000000FD
:1033D00001000000000000000E33CDAB34126DE69A
:1033E000ECDE05000B000000000000000000000003
:1033F00000000000000000000000000000000000CD
:1034000000000000000000000000000000000000BC
:1034100000000000000000000000000000000000AC
:10342000000000000000000000000000000000009C
:0400000508002AA124
:00000001FF
