:020000040800F2
:1000000000000220C92A0008390300083103000853
:100010003303000835030008370300080000000020
:100020000000000000000000000000003B0300088A
:100030003D030008000000003F03000869040008B9
:10004000152B0008152B0008152B0008152B000890
:10005000152B0008152B0008152B0008152B000880
:10006000152B0008152B0008152B0008152B000870
:10007000152B0008152B0008152B0008152B000860
:10008000152B0008152B0008152B0008152B000850
:10009000152B0008152B0008152B0008152B000840
:1000A000152B0008152B0008152B0008152B000830
:1000B000152B0008152B000885040008152B0008D7
:1000C000152B0008152B0008152B0008152B000810
:1000D000152B0008152B0008152B0008152B000800
:1000E000152B0008152B0008152B0008152B0008F0
:1000F000152B0008152B0008152B0008152B0008E0
:10010000152B0008152B0008152B0008152B0008CF
:10011000152B0008152B0008152B0008152B0008BF
:10012000152B0008152B0008152B0008152B0008AF
:10013000152B0008152B0008152B0008152B00089F
:10014000152B0008152B0008152B0008152B00088F
:10015000152B0008152B0008152B0008152B00087F
:10016000152B0008152B0008152B0008152B00086F
:10017000152B0008152B0008152B0008152B00085F
:10018000152B0008152B0008152B0008152B00084F
:10019000152B0008152B0008152B0008152B00083F
:1001A000152B0008152B0008152B00080000000077
:1001B0003C4B1A6842F001021A6000229A601968EA
:1001C00021F0847121F48031196037495960196830
:1001D00082B021F480211960DA60009201921A68DD
:1001E00042F480321A602F4B1A6802F400320192F6
:1001F000009A01320092019A1AB9009AB2F5A04F02
:10020000F1D11B6813F4003318BF01230193019B44
:10021000012B0CD0234B9A6822F400029A60234AE7
:10022000C3F884201A6842F080621A6030E01D4BE7
:100230001A6C42F080521A641D4A116841F4404120
:1002400011609A689A609A6842F400429A609A68CB
:1002500042F4A0529A60174A5A601A6842F08072BB
:100260001A6019680F4A8901FBD5134B40F20561EA
:100270001960936823F003039360936843F00203CB
:100280009360084B9B6803F00C03082BF9D1C1E77E
:100290001A681201FCD5094B4FF000629A6002B057
:1002A000704700BF0038024010300024804000300A
:1002B0000070004008544007003C024000ED00E0A0
:1002C000174A184B916801F00C01042903D0082942
:1002D00003D0154A18E0154A16E05068516810F42A
:1002E000800F506814BF114A0F4A01F03F01B2FB62
:1002F000F1F20B494968C1F30141C0F388100131A3
:1003000042434900B2FBF1F21A60054A9268C2F317
:1003100003121A4411791A68CA401A60704700BF64
:1003200000380240040000200024F40000127A008B
:10033000FEE7FEE7FEE7FEE770477047704770474D
:10034000344B1A78012A10B51C4629D15A8899884D
:1003500091425ED230489A804FF4FC4141839979B2
:100360002E4C34F8214004830131C9B2052988BFDD
:10037000002199710623B2FBF3F39C22B3FBF2F147
:1003800002FB113292B24D2A4FF04E02B3FBF2F152
:1003900002FB1130C0B294BF4FF4FA71002134E077
:1003A0001A78032A14D119894A1C92B2B1F5C87F70
:1003B0001A8106D900221A81174B4FF4FC425A8346
:1003C00010BDC82A25D1144B4FF4FC421A8310BD2E
:1003D0001B7803F0FF02E3B92389B3F5C86F9ABF16
:1003E0000133238122812189B1F5487F9CBFC1F56A
:1003F000C86189B2002000F033FC2189B1F5487F43
:1004000084BFC1F5C86189B20120BDE8104000F089
:1004100027BC10BD6004002000180240C82E000850
:100420000F4B1B6913F4007F0E4B4EF201025989EA
:1004300008BF4FF4604242EA410292B2B2F57F4FE8
:100440005A8102D101229A8170474EF20F018A42ED
:1004500005D15A881AB99A89012A08BF9A73704738
:10046000000C02406004002008B5054B1A680132F8
:100470001A60FFF765FFBDE80840FFF7D1BF00BF76
:10048000244600200F49202310B50B830E4B1A88F9
:100490000C4672B90D4B1969C1F3C031A3F58063E5
:1004A000802209B11A8300E05A83094802F037FB21
:1004B00001E0013A1A800748012101F0C5FF20231D
:1004C000638310BD001002401800002000080240A5
:1004D0007004002000080040F8B51E46124B402270
:1004E0001A830C1D051D1F46DEB135F8041C24F8C7
:1004F000041C35F8023C0D4A24F8023C1088023EE8
:10050000B6B248B941F3CC0111F50061084818BFF3
:10051000012102F004FB01E00138108004340435AD
:10052000E2E740237B83F8BD001002401800002062
:10053000700400202DE9F041174D08232B838046DD
:100540000F4600F013FDF32000F0A4FD00242E461A
:10055000124B1349D3F8AC2061588A421D4603D18F
:100560006000022100F0CDFD0434302CF0D10024D5
:10057000BC420CD258F80410D5F8AC0000F0A6FE2E
:10058000D5F8AC300433C5F8AC300434F0E70823B8
:100590007383BDE8F08100BF0010024060040020BA
:1005A000E02E0008704708B50022064840F2D561E9
:1005B00000F014F9044B00221A60BDE8084000F076
:1005C0005FB800BF100500202446002038B5144D48
:1005D00010232B83052000F00CFC0024E0B2002146
:1005E000013400F068FB1A2CF8D110236B8300242F
:1005F0004C2C04D8E0B24FF4FA7100F031FB0949F9
:1006000000BF0139FCD1072C04D9A4F10800C0B205
:1006100000F026FB0134A4B2552CE9D138BD00BF4F
:1006200000100240E0930400134BFF2183F8B31045
:10063000202183F8B4100C21C3F898100621C3F8C8
:100640009C100421002283F8A8100C49C3F89420C0
:10065000A3F8C021C3F8902083F8B220A3F8B620F5
:1006600083F8A020C3F8A420C3F8AC105A809A8065
:100670009A711A70704700BF600400200080000863
:10068000F7B50121324E334F402001F013F968468F
:1006900000F09BFF012400254FF4FC4330466946DF
:1006A00000938DF805508DF806508DF807508DF8A1
:1006B000044000F049FF2146102001F0FBF86F23B1
:1006C00038466946009300F03FFF102338466946DC
:1006D000009300F039FF2146022001F0EBF880235F
:1006E00069461D48009300F02FFF2146082001F0C5
:1006F000E1F88DF804508DF80550184D8DF807403D
:100700004FF4007328466946009300F01DFF214610
:10071000482001F0CFF841F20F03284669460093C4
:100720004FF4004500F010FF30466946009500F098
:100730000BFF2146042001F0BDF8022308488DF884
:1007400007306946009500F0FFFE03B0F0BD00BF22
:10075000001802400010024000040240000C024059
:1007600000080240144B15494FF0FF32C3F88020B7
:10077000C3F88420C3F88021C3F88421042243F8FD
:10078000F02C0F4B1A6842F001021A600D4A1068F3
:1007900001401160196821F0847121F480311960E1
:1007A000196821F480211960136823F4FE03136093
:1007B000054B00221A60704700E100E00000FFF8DE
:1007C00000380240403A0240803C024008B543688D
:1007D000026882F30888984708BD00BF7FB51446B9
:1007E0000E46FFF7E5FC2CB14FF000604FF40041DE
:1007F00000F060FB0420012101F080F80021154881
:1008000001F0D1FA00241E23012568468DF800303E
:100810008DF801408DF802408DF8035000F014FB74
:1008200001A801F069FA01A90A480296ADF804404E
:10083000ADF80C40ADF8064001F020FA29462246FA
:10084000044801F0E1FD0348214601F0ACFA04B090
:1008500070BD00BF0008004010B50B4C01212046C0
:1008600001F0A1FA01210A46204601F0CDFD074B17
:10087000074A5A60074AF02182F8231000229A6042
:1008800007221A6010BD00BF0008004010E000E021
:100890003F90020000ED00E013B50220012101F0BD
:1008A00009F80F4C4FF44073009302238DF8043085
:1008B00001220023204669468DF805308DF8073067
:1008C0008DF8062000F040FE20460821042200F0AA
:1008D000B8FE20460921042200F0B3FE02B010BD8C
:1008E0000004024030B5154C85B001214FF40010D2
:1008F00001F004F8204601F069FE0023ADF8043051
:100900004BF6FF73ADF806303423ADF808304FF4E2
:100910008063ADF80A3004AD4FF48043ADF80C307D
:100920002046074B45F8103D012101F0F9FE204615
:10093000694601F079FE05B030BD00BF00540040AB
:10094000801A060001207047F8B5334C4FF4961317
:1009500007460E461546236030484FF4003101F03B
:10096000F6FF28B123685A1E2260002BF4D127E03D
:100970002A48012101F0E0FE4FF48053236027480C
:10098000274901F0D0FF28B923685A1E2260002BA6
:10099000F5D115E07F0067F07F01204801F0FE01EE
:1009A000002201F0E1FE4FF4805323601B481D49F3
:1009B00001F0B9FF30B923685A1E2260002BF5D12F
:1009C0000120F8BD1548314601F051FF4FF4805326
:1009D00023601248144901F0A6FF28B923685A1E63
:1009E0002260002BF5D1EBE70C48294601F03FFFD0
:1009F0004FF49613236009480C4901F0A8FF28B969
:100A000023685A1E2260002BF5D1D9E70348012143
:100A100001F09EFE0020F8BD1C00002000540040A4
:100A2000010003008200070080000700040000109E
:100A300038B51F4C4FF49613054623601D484FF4FC
:100A4000003101F084FF28B123685A1E2260002B78
:100A5000F4D12AE01748012101F06EFE4FF48053D3
:100A600023601448144901F05EFF28B923685A1E18
:100A70002260002BF5D118E06D0065F07F010D4874
:100A800001F0FE01002201F06FFE4FF4805323605D
:100A900008480A4901F047FF28B923685A1E226016
:100AA000002BF5D101E0002038BD012038BD00BF8A
:100AB0001C000020005400400100030082000700D9
:100AC00010B501460A4C0B4801F0D1FE4FF480539B
:100AD00023600848084901F026FF30B923685A1EF0
:100AE0002260002BF5D1012010BD002010BD00BFF9
:100AF0001C00002000540040800007000148012134
:100B000001F026BE005400402DE9F04781460C4616
:100B10004FF0050800252846FFF78AFF0620FFF75B
:100B2000CFFF05EB8506F6B246452EDA06EB460A00
:100B30000020FFF7C5FF0020FFF7C2FF19F81A00D9
:100B4000FFF7BEFF39F81A00000A09EB4A07FFF762
:100B5000B7FF0020FFF7B4FF0020FFF7B1FFB87820
:100B6000FFF7AEFF7888000AFFF7AAFF0020FFF723
:100B7000A7FF0020FFF7A4FF3879FFF7A1FFB8888F
:100B8000000AFFF79DFF0136CDE7022D0BD10020B3
:100B9000FFF796FF0020FFF793FF94F82200FFF77E
:100BA0008FFF608C0CE0032D0DD10020FFF788FF34
:100BB0000020FFF785FF94F82000FFF781FF208CCD
:100BC000000AFFF77DFF0135EDB2FFF797FF042D17
:100BD00008F105089FD12846FFF72AFF0620FFF7F6
:100BE0006FFF254600260020FFF76AFF0020FFF771
:100BF00067FFA05DFFF764FFA05B000AFFF760FFDF
:100C00000020FFF75DFF0020FFF75AFFA878FFF7ED
:100C100057FF6888000AFFF753FF0020FFF750FFD7
:100C20000020FFF74DFF2879FFF74AFFA888063616
:100C3000000AFFF745FF1E2E05F10605D3D100205F
:100C4000FFF73EFF0020FFF73BFFA07FFFF738FFD5
:100C5000E08B000AFFF734FFBDE8F047FFF74EBF17
:100C60004A2838B50C464FF00F0508D8B0FBF5F30D
:100C7000C3EB031503EB05152844C5B202E0A0F150
:100C80004903DBB21846FFF7D3FEA800063000F098
:100C9000FE00FFF715FF0020FFF712FF0020FFF70F
:100CA0000FFFE0B2FFF70CFF200AFFF709FFBDE8D6
:100CB0003840FFF723BF1828F8B50346C1F309549D
:100CC000C1F38925C1F3090635D80520B3FBF0F03F
:100CD000C0EB8017C0EB87073B44DFB207EB470749
:100CE000FFF7A6FEB800063000F0FE00FFF7E8FEB2
:100CF0000020FFF7E5FE0020FFF7E2FEE0B2FFF77D
:100D0000DFFE200AFFF7DCFE0020FFF7D9FE0020FF
:100D1000FFF7D6FEE8B2FFF7D3FE280AFFF7D0FEB2
:100D20000020FFF7CDFE0020FFF7CAFEF0B2FFF76C
:100D3000C7FE300A39E019283DD10220FFF778FEBE
:100D40004220FFF7BDFE0020FFF7BAFE0020FFF7AC
:100D5000B7FEF0B2FFF7B4FE300AFFF7B1FEFFF7BF
:100D6000CDFE0320FFF764FE4220FFF7A9FE00201E
:100D7000FFF7A6FE0020FFF7A3FEE8B2FFF7A0FEF4
:100D8000280AFFF79DFEFFF7B9FE0420FFF750FE8B
:100D90004220FFF795FE0020FFF792FE0020FFF7AC
:100DA0008FFEE0B2FFF78CFE200AFFF789FEBDE858
:100DB000F840FFF7A3BEF8BD002110B50A4604466F
:100DC000FFF7C2FD142100BF0139FCD1204680226B
:100DD000FFF7BAFD142100BF0139FCD120462022C3
:100DE000FFF7B2FD204601211122BDE81040FFF7B8
:100DF000ABBD38B50546FFF74FFDFFF773FD002487
:100E0000E0B2A84203D2FFF7D7FF0134F8E738BDBC
:100E100002440346934202D003F8011BFAE77047ED
:100E200010B50023934203D0CC5CC4540133F9E7DE
:100E300010BD000040F0BF60024B40F40030D860AD
:100E4000704700BF00ED00E0C278037810B50AB328
:100E5000164A4478D268D243C2F30222C2F1040196
:100E6000C9B204FA01F10F2444FA02F28478C9B23B
:100E700022400A4303F1604303F561431201D2B2F9
:100E800083F8002303780122590903F01F0302FAB3
:100E900003F306E05909012203F01F0302FA03F3EA
:100EA0002031034A42F8213010BD00BF00ED00E0C0
:100EB00000E100E021F0604121F07F01014B084397
:100EC0009860704700ED00E0044B1A6909B11043C7
:100ED00001E022EA00001861704700BF00ED00E069
:100EE000044B1A6804280CBF42F0040222F00402EA
:100EF0001A60704710E000E0014BC0B218707047F4
:100F0000003C0240044B1A6810B142F4807201E0C8
:100F100022F480721A607047003C0240044B1A6849
:100F200010B142F4007201E022F400721A607047BE
:100F3000003C0240044B1A6810B142F4806201E0A8
:100F400022F480621A607047003C0240024B1A682B
:100F500042F400621A607047003C0240024B1A687B
:100F600042F480521A607047003C0240044B1A69F8
:100F7000002A04DA034A5A6002F188325A60704744
:100F8000003C024023016745024B1A6942F00042CF
:100F90001A617047003C0240044B5A69D20704D5DD
:100FA000034A9A6002F144329A607047003C024062
:100FB0003B2A1908024B5A6942F001025A617047F4
:100FC000003C0240034B1A7802F07F021043187075
:100FD000704700BF173C0240044B1A7802F0EF0242
:100FE0001A701A7810431870704700BF143C024002
:100FF000044B1A7802F0F3021A701A781043187032
:10100000704700BF143C0240024B5869C0F34710C0
:10101000704700BF003C0240014B188880B2704707
:10102000163C0240014B188880B270471A3C0240BF
:10103000014B188880B27047163C0240014B18885B
:1010400080B270471A3C0240024B1878AA3818BF89
:1010500001207047153C0240024B187800F00C004C
:10106000704700BF143C0240044B1A6909B1104399
:1010700001E022EA00001861704700BF003C024016
:10108000034BDB6818420CBF00200120704700BFF3
:10109000003C0240014BD860704700BF003C02405A
:1010A0000E4BDA68D00310D4DA68D1060FD4DA68B0
:1010B000D2050ED4DA6812F0EF0F0CD1DB6813F012
:1010C000020F0CBF0920082070470120704706203E
:1010D0007047022070470720704700BF003C024065
:1010E00007B509238DF80730FFF7DAFF8DF8070001
:1010F0009DF80730012BF7D09DF8070003B05DF88D
:1011000004FB70B5064641B1012908D0022914BF7D
:101110004FF440754FF4007503E00D4601E04FF4C5
:101120008075FFF7DDFF09281ED1104C236923F4D9
:101130004073236121690D432561236923F0F8037E
:101140002361236943F002031E432661236943F4AC
:1011500080332361FFF7C4FF236923F00203236177
:10116000236923F0F803236170BD00BF003C0240F7
:1011700010B50446FFF7B4FF44B1012C08D0022C8F
:1011800014BF4FF440734FF4007303E0234601E0B3
:101190004FF48073092819D10D4C226922F4407252
:1011A0002261226913432361236943F4004343F01E
:1011B00004032361236943F480332361FFF790FF25
:1011C000236923F4004323F00403236110BD00BF0F
:1011D000003C024010B50446FFF782FF44B1012CE9
:1011E00008D0022C14BF4FF440734FF4007303E097
:1011F000234601E04FF48073092815D10B4C226976
:1012000022F440722261226913432361236943F06F
:1012100004032361236943F480332361FFF760FFF4
:10122000236923F00403236110BD00BF003C02408A
:1012300010B50446FFF754FF44B1012C08D0022C2E
:1012400014BF4FF440734FF4007303E0234601E0F2
:101250004FF48073092815D10B4C226922F4407297
:101260002261226913432361236943F4004323610C
:10127000236943F480332361FFF732FF236923F4AA
:101280000043236110BD00BF003C0240F8B5074693
:1012900014461D46FFF724FF092814D10A4E33696E
:1012A00023F440733361336943F44073336133692A
:1012B00043F001033361C7E90045FFF711FF3369CC
:1012C00023F001033361F8BD003C024070B50546D0
:1012D0000E46FFF705FF092813D10A4C236923F4B2
:1012E00040732361236943F400732361236943F04E
:1012F000010323612E60FFF7F3FE236923F001034E
:10130000236170BD003C024070B505460E46FFF7F4
:10131000E7FE092813D10A4C236923F440732361A3
:10132000236943F480732361236943F0010323613C
:101330002E80FFF7D5FE236923F00103236170BDE2
:10134000003C024070B505460E46FFF7C9FE09286D
:1013500011D1094C236923F440732361236923616C
:10136000236943F0010323612E70FFF7B9FE23695F
:1013700023F00103236170BD003C024038B50446F0
:101380000D46FFF7ADFE092809D1054B1A881DB19E
:1013900092B222EA040401E01443A4B21C8038BDD6
:1013A000163C024038B504460D46FFF799FE092861
:1013B00009D1054B1A881DB192B222EA040401E05A
:1013C0001443A4B21C8038BD1A3C024038B5044610
:1013D0000D46FFF785FE092809D1054B1A8815B17E
:1013E0001443A4B202E092B222EA04041C8038BD85
:1013F000163C024038B504460D46FFF771FE092839
:1014000009D1054B1A8815B11443A4B202E092B277
:1014100022EA04041C8038BD1A3C024010B5044680
:10142000FFF75EFE092804BF014B1C7010BD00BF12
:10143000153C024070B504460D461646FFF750FEB7
:10144000092807D1044B1A7802F01F0214432643DF
:1014500035431D7070BD00BF143C0240034B1A7829
:1014600042F002021A70FFF73BBE00BF143C02407C
:1014700008B52C4B984205D10120014600F056FAE0
:10148000012048E0284B984205D10220012100F0BC
:101490004DFA02203FE0254B984205D1042001215E
:1014A00000F044FA042036E0214B984205D1082090
:1014B000012100F03BFA08202DE01E4B984205D197
:1014C0001020012100F032FA102024E01A4B98423B
:1014D00005D12020012100F029FA20201BE0174B24
:1014E000984205D14020012100F020FA402012E06E
:1014F000134B984205D18020012100F017FA80207B
:1015000009E0104B98420BD14FF48070012100F09C
:101510000DFA4FF480700021BDE8084000F006BAD3
:1015200008BD00BF00000240000402400008024065
:10153000000C02400010024000140240001802405B
:10154000001C0240002002402DE9F0410F680023FA
:1015500001229A4002EA0705954231D15A0003243C
:1015600006689440E443264006600E79D0F800C037
:1015700006FA02F8013EF6B248EA0C0C012EC0F859
:1015800000C014D8866891F805C026408660866839
:101590000CFA02FC4CEA06068660466826EA050557
:1015A00045608D7946689D40ADB235434560C5685C
:1015B0002C40C460CD79C46805FA02F22243C260AF
:1015C0000133102BC4D1BDE8F0814FF6FF730360E7
:1015D0000023037143718371C371704782B04FF46C
:1015E00080330193019B0B430193019BC361C16154
:1015F000019BC361C3690193C369019302B0704742
:10160000036919420CBF002001207047006980B2B5
:101610007047436919420CBF0020012070474069A0
:1016200080B2704701837047418370470AB10183DC
:101630007047418370474161704743695940416138
:10164000704701F00703C90800EB810010B59B004B
:10165000046A0F21994024EA01010162016A9A405B
:101660001143016210BD00BF0A4B1A68002142F00D
:1016700001021A6099601A6822F0847222F48032A2
:101680001A60054A5A601A6822F480221A60D960EA
:10169000704700BF0038024010300024024B002287
:1016A0001A701870704700BF02380240034B1A6866
:1016B00022F0F80242EAC000186070470038024089
:1016C000014B1860704700BF00004742064B0022E4
:1016D00001281A701A7002D0042802D070471870BE
:1016E000704705221A70704770380240014B18602D
:1016F000704700BF800E474210B5029C40EA04606C
:1017000001435B08013B41EA821242EA0344014B78
:101710005C6010BD00380240014B1860704700BF8C
:10172000600047420907034B41EA8010C3F8840078
:10173000704700BF00380240014B1860704700BF7F
:1017400068004742014B1860704700BF4C00474299
:10175000034B9A6822F0EC6211430843986070478B
:1017600000380240034B9A6822F078421143084344
:101770009860704700380240034B9A6822F00302D9
:1017800010439860704700BF00380240024B9868D1
:1017900000F00C00704700BF00380240034B9A680D
:1017A00022F0F00210439860704700BF00380240FA
:1017B000034B9A6822F4E05210439860704700BFD0
:1017C00000380240034B9A6822F4604242EAC000AB
:1017D00098607047003802401D4B9A6802F00C0276
:1017E000042A10B503D0082A03D01A4B18E01A4B6C
:1017F00016E059685A6811F4800F596814BF164BE7
:10180000144B02F03F02B3FBF2F3114A5268C2F3E9
:101810000142C1F3881101324B435200B3FBF2F392
:101820000B4903608B680D4AC3F30313D45C036850
:10183000E34043608C68C4F38224145D23FA04F40B
:1018400084608968C1F34231525CD340C36010BDEB
:10185000003802400024F40000127A00200000202A
:1018600000F44073B3F5407F084B08D1996820F02D
:10187000704221F4F81122F440720A439A601A6F00
:10188000C0F30B0010431867704700BF00380240D8
:10189000014B1860704700BF3C0E4742014B186077
:1018A000704700BF400E4742014B1860704700BFB1
:1018B0005C014742044B1A6B09B1104301E022EA74
:1018C00000001863704700BF00380240044B5A6B99
:1018D00009B1104301E022EA00005863704700BFDD
:1018E00000380240044B9A6B09B1104301E022EA30
:1018F00000009863704700BF00380240044B1A6C28
:1019000009B1104301E022EA00001864704700BFEB
:1019100000380240044B5A6C09B1104301E022EA3E
:1019200000005864704700BF00380240044B1A6939
:1019300009B1104301E022EA00001861704700BFBE
:1019400000380240044B5A6909B1104301E022EA11
:1019500000005861704700BF00380240044B9A698C
:1019600009B1104301E022EA00009861704700BF0E
:1019700000380240044B1A6A09B1104301E022EA20
:1019800000001862704700BF00380240044B5A6ADA
:1019900009B1104301E022EA00005862704700BF1D
:1019A00000380240044B1A6D09B1104301E022EAED
:1019B00000001865704700BF00380240044B5A6DA4
:1019C00009B1104301E022EA00005865704700BFEA
:1019D00000380240044B9A6D09B1104301E022EA3D
:1019E00000009865704700BF00380240044B1A6E33
:1019F00009B1104301E022EA00001866704700BFF9
:101A000000380240044B5A6E09B1104301E022EA4B
:101A100000005866704700BF00380240044B1A7837
:101A200009B1104301E022EA00001870704700BFBE
:101A30000D3802404309012B074A01D1136803E026
:101A4000022B0CBF136F536F00F01F0023FA00F03E
:101A500000F00100704700BF0038024007B50023C6
:101A600001933120FFF7E6FF019B01330193019BB6
:101A7000B3F5A04F01D00028F3D03120FFF7DAFFF3
:101A8000003018BF012003B05DF804FB024B5A6F11
:101A900042F080725A67704700380240034BDB689F
:101AA00018420CBF00200120704700BF00380240E0
:101AB000014B1870704700BF0E38024030B5048CDF
:101AC00024F001042404240C0484058B048CADB29E
:101AD00025F0F305A4B22A4324F00A0442EA0313D2
:101AE00044F001049DB221430583018430BD30B52B
:101AF000048C24F010042404240C0484058B048C2E
:101B000025F44075A4B22D052D0D24F0A00444F059
:101B1000100445EA022242EA033344EA01119BB26F
:101B20008CB20383048430BD08B5474B984205D17D
:101B300001200146FFF72AFF01203DE0B0F1804F70
:101B400005D101200146FFF715FF012076E03F4B4C
:101B5000984205D102200121FFF70CFF02206DE021
:101B60003B4B984205D104200121FFF703FF0420DD
:101B700064E0384B984205D108200121FFF7FAFEB6
:101B800008205BE0344B984205D110200121FFF77B
:101B9000F1FE102052E0314B984205D12020012166
:101BA000FFF7E8FE202049E02D4B984209D10220A2
:101BB0000121FFF7EBFE02200021BDE80840FFF7FE
:101BC000E5BE284B984207D14FF480300121FFF742
:101BD000DDFE4FF48030EFE7234B984207D14FF4FE
:101BE00000300121FFF7D2FE4FF40030E4E71F4B35
:101BF000984207D14FF480200121FFF7C7FE4FF430
:101C00008020D9E71A4B984205D140200121FFF7E7
:101C1000B1FE402012E0174B984205D180200121EF
:101C2000FFF7A8FE802009E0134B98420BD14FF438
:101C300080700121FFF79EFE4FF480700021BDE807
:101C40000840FFF797BE08BD0000014000040040B7
:101C500000080040000C004000100040001400404C
:101C600000040140004001400044014000480140A0
:101C700000180040001C0040002000401C4A03885F
:101C800090429BB212D002F5806290420ED0B0F129
:101C9000804F0BD0A2F58032904207D002F58062CF
:101CA000904203D002F58062904203D14A8823F02B
:101CB000700313430F4A904208D002F580629042AD
:101CC00004D023F440730A899BB2134303804B680A
:101CD000C3620B880385064B984203D003F58063EB
:101CE000984201D18B7A038601238382704700BF1B
:101CF00000000140001000404FF0FF33436000231C
:101D0000038003814380837270470185828270471C
:101D1000038823F070031B041B0C194301807047D8
:101D200041627047C1627047406A7047008D80B25F
:101D30007047038819B19BB243F0020303E023F01C
:101D400002031B041B0C03807047038819B19BB26C
:101D500043F0040303E023F004031B041B0C038083
:101D60007047038819B19BB243F0800303E023F06E
:101D700080031B041B0C03807047038823F00803B7
:101D80001B041B0C038003889BB21943018070471E
:101D9000038823F440731B041B0C038003889BB24D
:101DA000194301807047038819B19BB243F00103C6
:101DB00003E023F001031B041B0C03807047038C1A
:101DC00023F001031B041B0C038470B5038C84886F
:101DD000028B0D884E8822F073021204120C2A43E3
:101DE0008D8923F002031B043543ADB21B0C2B433A
:101DF0000E4DA842A4B203D005F58065A8420ED1CD
:101E0000CD894E8A23F008032B438D8823F00403E9
:101E10002B430D8A354324F44074ADB22C438480A7
:101E200002838A684263038470BD00BF00000140E2
:101E3000038C23F010031B041B0C0384038C828887
:101E400030B5048B0D8824F4E6442404240C23F0DC
:101E5000200344EA05241B048D891B0C43EA051367
:101E60004D8843EA0513134DA84292B2A4B29BB227
:101E700003D005F58065A84215D1CD8923F08003F4
:101E80009BB243EA05134FF6BF751D408B8845EAA8
:101E900003130D8A22F4406242EA85024D8A42EA27
:101EA00085029BB292B282808A6804838263038433
:101EB00030BD00BF00000140038C23F480731B047D
:101EC0001B0C0384038C828830B5848B0D8824F02E
:101ED00073042404240C23F400732C431B048D8905
:101EE0001B0C43EA05234D8843EA0523124DA84203
:101EF00092B29BB203D005F58065A84215D1CD8979
:101F000023F400639BB243EA05234FF6FF351D40DF
:101F10008B8845EA03230D8A22F4405242EA0512D7
:101F20004D8A42EA05129BB292B282808A6884830B
:101F3000C263038430BD00BF00000140038C23F462
:101F400080531B041B0C0384038C30B58488828B64
:101F50000D8822F4E6421204120C23F4005342EAE4
:101F600005221B048D891B0C43EA05334D8843EA87
:101F700005330B4DA842A4B292B29BB203D005F533
:101F80008065A84205D10D8A24F4804444EA851472
:101F9000A4B2848082838A680264038430BD00BF57
:101FA000000001400023038043808380836083819D
:101FB000C38103824382704730B5058C0124ADB2E2
:101FC0008C4025EA040400F11803048421F0080081
:101FD00038B949084FF68F705C582040585058580F
:101FE0000AE00439C1F34E0148F6FF70CC58204096
:101FF000C8501202C85892B20243CA5030BD416361
:10200000704781637047C163704701647047038BF9
:1020100023F070031B041B0C194301837047038BCF
:1020200023F4E0431B041B0C43EA01218BB203831E
:102030007047838B23F070031B041B0C19438183AF
:102040007047838B23F4E0431B041B0C43EA0121FC
:102050008BB283837047038B23F008031B041B0C94
:10206000194301837047038B23F400631B041B0C8B
:1020700043EA01218BB203837047838B23F008036B
:102080001B041B0C194381837047838B23F400636B
:102090001B041B0C43EA01218BB283837047038B23
:1020A00023F004031B041B0C194301837047038BAB
:1020B00023F480631B041B0C43EA01218BB20383CE
:1020C0007047838B23F004031B041B0C194381838B
:1020D0007047838B23F480631B041B0C43EA0121AC
:1020E0008BB283837047038B23F080031B041B0C8C
:1020F000194301837047038BC3F30E0343EA0121A5
:102100008BB203837047838B23F080031B041B0C6B
:10211000194381837047838BC3F30E0343EA012184
:102120008BB283837047038C23F002031B041B0CC8
:10213000194301847047038C23F008031B041B0C14
:10214000194301847047038C23F020031B041B0CEC
:1021500043EA01118BB203847047038C23F08003A0
:102160001B041B0C43EA01118BB203847047038CE0
:1021700023F400731B041B0C43EA01218BB203847C
:102180007047038C23F400631B041B0C43EA0121FA
:102190008BB203847047038C23F400531B041B0C85
:1021A00043EA01318BB20384704710B5048C0123DC
:1021B000A4B28B4024EA03030384038C8A401343B4
:1021C0009BB2038410BD10B5048C0423A4B28B40D1
:1021D00024EA03030384038C8A4013439BB20384E1
:1021E00010BD00230122038043808280C3800381CD
:1021F0007047406B7047806B7047C06B7047006CD6
:102200007047038B23F00C031B041B0C0383038B0D
:102210009BB2194301837047038B23F440631B0473
:102220001B0C0383038B9BB243EA01218BB2038314
:102230007047F8B50C464988A288B4F800E02389B5
:10224000002914BF00270227012A054614BF0126D2
:102250000226BEF1000F11D1FFF730FC2846E188BD
:10226000FFF7CFFF2846394632462389FFF73FFC68
:102270002846E188BDE8F840FFF7CEBFFFF737FCFE
:102280002846E188FFF7C8FF2846394632462389A9
:10229000FFF714FC2846E188BDE8F840FFF7B1BF1E
:1022A000838B23F00C031B041B0C8383838B9BB257
:1022B000194381837047838B23F440631B041B0CF9
:1022C0008383838B9BB243EA01218BB28383704764
:1022D000F8B50D460E88AA8849882B8904463EB970
:1022E000FFF7ECFB2046E988BDE8F840FFF789BF1F
:1022F000042E07D1FFF7FBFB2046E988BDE8F84034
:10230000FFF78ABF082EB5F806C0078C1CD127F44A
:1023100080773F043F0C0784868B058CB6B2ADB244
:1023200026F0F30625F4206546EA031345EA012169
:102330009BB289B21A4341F480718283BDE8F840B0
:1023400001846146FFF7ACBF27F480573F043F0C80
:102350000784868B058C26F4407625F400553605D7
:102360006D046D0C360D46EA022645EA013146EA57
:10237000033389B29BB241F4805183830184BDE869
:10238000F8406146FFF797BF4A880B8813438A8855
:102390001343CA8813430A8913434A8913438A891A
:1023A00013439BB2A0F8443070470023038043805E
:1023B0008380C3800381438183817047B0F84430B8
:1023C00029B16FEA43436FEA53439BB201E0C3F381
:1023D0000E03A0F844307047838819B19BB243F0D4
:1023E000040303E023F004031B041B0C83807047E9
:1023F000838819B19BB243F0010303E023F001038A
:102400001B041B0C8380704783899BB20AB119435C
:1024100001E023EA01018181704781827047038ACC
:1024200019420CBF002001207047C94389B20182C4
:102430007047038A828911EA030092B203D01142E5
:102440000CBF002001207047C94389B20182704748
:102450000A43A0F84820704783899BB20AB1194308
:1024600001E023EA010181817047838819B19BB2A1
:1024700043F0080303E023F008031B041B0C8380D4
:102480007047038923F007031B041B0C038170476B
:10249000038923F070031B041B0C1943018103897A
:1024A0009BB243F007030381704738B50D46602D9A
:1024B000114604464FF0010202D1FFF718FB01E07C
:1024C000FFF7FCFA238923F070031B041B0C2B433A
:1024D000238123899BB243F00703238138BD0389FD
:1024E00023F070031B041B0C194301817047838880
:1024F00023F070031B041B0C838083889BB2194359
:1025000081807047038923F007031B041B0C0381A0
:1025100003899BB2194301817047038923F080032B
:102520001B041B0C038103899BB219430181704773
:1025300010B50489E4B221430A4342EA03239CB262
:10254000048110BD10B50446FFF7F2FF238923F084
:1025500077031B041B0C43F07703238110BD10B5D8
:102560000446FFF7E5FF23899BB243F480432381B0
:1025700010BD70B50589048B068C24F44074B6B286
:1025800024F0030426F0220625F007052404324334
:102590002D04240C2D0C44F4807442EA03132943C7
:1025A00044F001049EB201810483068470BD8388D7
:1025B00019B19BB243F0800303E023F080031B04B6
:1025C0001B0C83807047A0F85010704708B5134B60
:1025D000984207D14FF400100121FFF7CBF94FF4D7
:1025E000001014E00E4B984207D14FF480000121F7
:1025F000FFF7C0F94FF4800009E00A4B98420BD175
:102600004FF400000121FFF7B5F94FF4000000215D
:10261000BDE80840FFF7AEB908BD00BF0054004058
:1026200000580040005C0040F0B585B00446868844
:10263000324F68460D46FFF7CFF802982A68304BB4
:1026400026F03F063604B0FBF7F7360C1FFA87FC7E
:102650004CEA0606A680218821F001010904090C34
:102660009A4221800DD85300B0FBF3F39BB20CF1DA
:10267000010C032B1FFA8CFC98BF0423A4F820C084
:1026800022E0E9884BF6FF73994205D102EB420242
:10269000B0FBF2F39BB206E019235343B0FBF3F314
:1026A0009BB243F48043C3F30B020AB943F0010326
:1026B0004FF4967257434FF47A7297FBF2F7013753
:1026C000BFB243F400432784A38323886989AA887F
:1026D0009BB243F001032380238823F4816323F01A
:1026E00002031B040A431B0C13439BB223802A8959
:1026F000AB8913439BB2238105B0F0BD40420F006C
:10270000A086010041F288330360002383804BF6EA
:10271000FF72038143814FF48043C28083817047FD
:10272000038819B19BB243F0010303E023F00103D6
:102730001B041B0C03807047038819B19BB243F440
:10274000807303E023F480731B041B0C0380704729
:10275000038819B19BB243F4007303E023F40073C0
:102760001B041B0C0380704712B141F0010101E012
:1027700001F0FE0101827047038819B19BB243F456
:10278000806303E023F480631B041B0C0380704709
:1027900083899BB201F0FE0123F0FE030B4383818A
:1027A0007047838919B19BB243F0010303E023F022
:1027B00001031B041B0C83817047038819B19BB272
:1027C00043F0400303E023F040031B041B0C038091
:1027D0007047038829B16FEA43436FEA53439BB2C2
:1027E00001E0C3F30E0303807047038819B99BB25D
:1027F00043F0800303E023F080031B041B0C0380E1
:102800007047B1F5804F838B04D023F480431B04C1
:102810001B0C02E09BB243F4804383837047B1F505
:10282000006F038803D19BB243F4006303E023F4F9
:1028300000631B041B0C03807047B1F5005F038825
:1028400003D19BB243F4005303E023F400531B0471
:102850001B0C03807047038819B19BB243F010032F
:1028600003E023F010031B041B0C0380704701825C
:102870007047008AC0B27047038819B19BB243F415
:10288000805303E023F480531B041B0C0380704728
:10289000B1F5006F038803D19BB243F4006303E0FA
:1028A00023F400631B041B0C03807047038819B1D9
:1028B0009BB243F0200303E023F020031B041B0C16
:1028C00003807047008BC0F307207047838819B1DD
:1028D0009BB243F4006303E023F400631B041B0C6E
:1028E00083807047838819B19BB243F4805303E01F
:1028F00023F480531B041B0C8380704782B0002399
:1029000001930190019B19440191019B188880B2A9
:1029100002B0704783889BB20AB1194301E023EAF1
:10292000010181807047828A008B92B221F07F433F
:1029300042EA00401840431A584258417047838A7F
:10294000008B9BB243EA004020F07F40704782B08A
:102950000023009301930B0F01900093009B21F043
:102960007F4113B1019B143302E0019B090C183322
:102970000193019B1B6819420CBF0020012002B08B
:102980007047C94389B2818270478388808A80B248
:1029900008409BB206D001F0E06113EA11410CBF80
:1029A000002001207047C94389B28182704700BF6F
:1029B00010B5C0430A44914209D011F8014B054BB0
:1029C0004440E4B253F8243083EA1020F3E7C043D4
:1029D00010BD00BF102F000843780B41DB0701D466
:1029E000032310E0012914D015D3022918D18388BC
:1029F00001339BB242F2CE329342838005D9B0F8C4
:102A00000E3113B105230370704707234370202351
:102A100005E0417001E0022343708378013B83703D
:102A200083782BB901220270A0F80C31C371837135
:102A30007047037810B50A46044613B1012B03D042
:102A40003FE0FFF7C9FF3CE0022902D103230370F6
:102A500037E0B0F80C114318D8790243A079DA7145
:102A60000130C0B20828A07129D14B1C9BB20020B4
:102A7000B3F5827FA071A4F80C311DD14FF48072A0
:102A8000E11DFFF795FF94F8083194F807211B0426
:102A900043EA026394F80A21134394F8092143EAB4
:102AA0000223984214BF04200220B4F80E31207093
:102AB0000133A4F80E3104E02344D87101E0520040
:102AC000DA71207810BD00BF002100F004B80C4B73
:102AD0005B58435004310B480B4B42189A42FFF4A9
:102AE000F6AF0A4A00F003B8002342F8043B084B53
:102AF0009A42FFF4F9AFFDF75BFB00F039F870473D
:102B00005033000800000020600400206004002012
:102B100030460020FFF7FEBF70477047704790F8BF
:102B200090308B42D0F8943001D101331DE0D0F8C1
:102B3000882080F89010934206D2D0F88C209342DF
:102B400034BF0023012300E0022390F898201AB13B
:102B5000013A80F898200223D0F88420835401326F
:102B600002F07F02C0F884200023C0F89430704740
:102B70002DE9F041FDF717FDFDF756FD40F6A17375
:102B80000024013B05D06E4A12699705F8D4013440
:102B9000F7E7B4F5FA6F6B4D8CBF00230123AB73DD
:102BA00063B9694B6F225A834FF4FC42A3F81A2889
:102BB000FDF70CFD05F1B000FDF74EFE40F6A173E8
:102BC000013B06D05E4A1269960554BF01340024C9
:102BD000F6E7B4F5FA6F8CBF00240124AC73AB8127
:102BE000AF7B002F30D1D5F89420D5F890305548E0
:102BF000D31A5C0604D02FB9837B002BF0D13FE0C1
:102C0000002FEDD002232B704F4B01221A834C4A28
:102C100011698805FBD40121598311698905FCD507
:102C20006F225A83494B4FF4FC425A830024E0B28E
:102C300000210134FEF73FF81A2CF8D1FDF7F4FC1F
:102C40000023AB81AB73CBE7404B4FF4FC425A837C
:102C5000FDF788FD3E48FDF7B9FD4FF0FF33B3F5B2
:102C6000FA6F3A4A07D80133B3F57A7F04D94FF4A3
:102C7000FC415183F3E700234FF4FC411183EEE75D
:102C8000D0F89030C218013303F07F03C0F89030C1
:102C9000117CB230FFF7CDFE02380328A3D8DFE85D
:102CA00000F0024143486E88264C06F03F0004F5D0
:102CB000E17801360123B6B208EB002004F1B90136
:102CC0004FF480722B70FEF7ABF86E8016F03F0663
:102CD0001CD1032340464FF480412370FDF72AFCAA
:102CE000FF2384F8B330202384F8B4300423C4F8DD
:102CF000946084F8B260A4F8B660C4F8906084F878
:102D0000A060C4F8A46084F8A8306CE7002384F8BD
:102D1000B230A4F8B630FF2384F8B330202384F80F
:102D2000B43060E7022200E00422074B01271A8337
:102D300059E70123AB73044B6F221A8353E700BF9B
:102D4000000C024060040020001002400018024005
:102D50000080000838B50B4D0B4C0C49224605F19C
:102D6000B00000F019F8224605F1B200084900F061
:102D700013F805F1100022460649BDE8384000F07E
:102D80000BB800BF6004002000000020192B0008D1
:102D90001B2B00081D2B000808402DE90030A0E186
:102DA0000100A0E10310A0E1010000EB0840BDE834
:102DB0001EFF2FE108402DE901C0A0E10230A0E193
:102DC0000010A0E10C20A0E10200A0E3010000EB54
:102DD0000840BDE81EFF2FE1E0C09FE570402DE9EF
:102DE00000509CE548C195E500005CE353CF8502A7
:102DF00004409CE548C185051F0054E310D04DE216
:102E00000060A0E1160000DAB4009FE5000050E386
:102E10000300001A0000E0E310D08DE27040BDE82E
:102E20001EFF2FE1190EA0E30C108DE508208DE5A3
:102E300004308DE500F020E300C050E20C109DE569
:102E400008209DE504309DE5F1FFFF0A480195E566
:102E50000040A0E311008CE848C185E588418CE57D
:102E60008C418CE5000056E30700001A013084E233
:102E70000000A0E3024084E204308CE504118CE7FA
:102E800010D08DE27040BDE81EFF2FE10150A0E39D
:102E90001554A0E104018CE0882080E588219CE5A0
:102EA000052082E188218CE5083180E5020056E3A7
:102EB0008C319C05055083018C518C05EAFFFFEA9B
:102EC00014330008000000000002000000040000AD
:102ED000000800000010000000200000004000007A
:102EE00000000008004000080080000800C0000842
:102EF00000000108000002080000040800000608A5
:102F00000000080800000A0800000C0800000E0875
:102F100000000000963007772C610EEEBA51099937
:102F200019C46D078FF46A7035A563E9A395649E93
:102F30003288DB0EA4B8DC791EE9D5E088D9D297B7
:102F40002B4CB609BD7CB17E072DB8E7911DBF9013
:102F50006410B71DF220B06A4871B9F3DE41BE8437
:102F60007DD4DA1AEBE4DD6D51B5D4F4C785D38393
:102F700056986C13C0A86B647AF962FDECC9658A37
:102F80004F5C0114D96C0663633D0FFAF50D088D93
:102F9000C8206E3B5E10694CE44160D5727167A237
:102FA000D1E4033C47D4044BFD850DD26BB50AA593
:102FB000FAA8B5356C98B242D6C9BBDB40F9BCACB7
:102FC000E36CD832755CDF45CF0DD6DC593DD1AB13
:102FD000AC30D9263A00DE518051D7C81661D0BF37
:102FE000B5F4B42123C4B3569995BACF0FA5BDB893
:102FF0009EB802280888055FB2D90CC624E90BB137
:10300000877C6F2F114C6858AB1D61C13D2D66B692
:103010009041DC760671DB01BC20D2982A10D5EFF6
:103020008985B1711FB5B606A5E4BF9F33D4B8E852
:10303000A2C9077834F9000F8EA8099618980EE1F6
:10304000BB0D6A7F2D3D6D08976C6491015C63E652
:10305000F4516B6B62616C1CD83065854E0062F276
:10306000ED95066C7BA5011BC1F4088257C40FF5D2
:10307000C6D9B06550E9B712EAB8BE8B7C88B9FCF6
:10308000DF1DDD62492DDA15F37CD38C654CD4FB52
:103090005861B24DCE51B53A7400BCA3E230BBD4F6
:1030A00041A5DF4AD795D83D6DC4D1A4FBF4D6D352
:1030B0006AE96943FCD96E34468867ADD0B860DAF6
:1030C000732D0444E51D03335F4C0AAAC97C0DDD52
:1030D0003C710550AA41022710100BBE86200CC976
:1030E00025B56857B3856F2009D466B99FE461CED2
:1030F0000EF9DE5E98C9D9292298D0B0B4A8D7C7F6
:10310000173DB359810DB42E3B5CBDB7AD6CBAC051
:103110002083B8EDB6B3BF9A0CE2B6039AD2B1746D
:103120003947D5EAAF77D29D1526DB048316DC73C9
:10313000120B63E3843B64943E6A6D0DA85A6A7A6D
:103140000BCF0EE49DFF099327AE000AB19E077DC9
:1031500044930FF0D2A3088768F2011EFEC20669ED
:103160005D5762F7CB67658071366C19E7066B6E49
:10317000761BD4FEE02BD3895A7ADA10CC4ADD676D
:103180006FDFB9F9F9EFBE8E43BEB717D58EB060C9
:10319000E8A3D6D67E93D1A1C4C2D83852F2DF4F6D
:1031A000F167BBD16757BCA6DD06B53F4B36B248C9
:1031B000DA2B0DD84C1B0AAFF64A0336607A04416D
:1031C000C3EF60DF55DF67A8EF8E6E3179BE6946C9
:1031D0008CB361CB1A8366BCA0D26F2536E26852ED
:1031E00095770CCC03470BBBB91602222F26055549
:1031F000BE3BBAC5280BBDB2925AB42B046AB35C6D
:10320000A7FFD7C231CFD0B58B9ED92C1DAEDE5BC8
:10321000B0C2649B26F263EC9CA36A750A936D02AC
:10322000A906099C3F360EEB856707721357000508
:10323000824ABF95147AB8E2AE2BB17B381BB60C2C
:103240009B8ED2920DBED5E5B7EFDC7C21DFDB0B88
:10325000D4D2D38642E2D4F1F8B3DD686E83DA1FAC
:10326000CD16BE815B26B9F6E177B06F7747B71808
:10327000E65A0888706A0FFFCA3B06665C0B0111AC
:10328000FF9E658F69AE62F8D3FF6B6145CF6C1608
:1032900078E20AA0EED20DD75483044EC2B30339AC
:1032A000612667A7F71660D04D476949DB776E3E08
:1032B0004A6AD1AEDC5AD6D9660BDF40F03BD8372C
:1032C00053AEBCA9C59EBBDE7FCFB247E9FFB53088
:1032D0001CF2BDBD8AC2BACA3093B353A6A3B424AC
:1032E0000536D0BA9306D7CD2957DE54BF67D92308
:1032F0002E7A66B3B84A61C4021B685D942B6F2AAC
:1033000037BE0BB4A18E0CC31BDF055A8DEF022D07
:1033100043000000300000200DC0A0E1F8DF2DE9DF
:1033200004B04CE228D04BE2F06F9DE81EFF2FE185
:103330000DC0A0E1F8DF2DE904B04CE228D04BE24B
:10334000F06F9DE81EFF2FE100000000000000006C
:1033500000000000007A030A0000000000000000E6
:103360000102030406070809401F000000C0120004
:10337000000000000102030401020304060708091B
:10338000000000001C03002084030020EC03002048
:10339000000000000000000000000000000000002D
:1033A000000000000000000000000000000000001D
:1033B00000000000103300080000000000000000C2
:1033C00000000000000000000000000000000000FD
:1033D00000000000000000000000000000000000ED
:1033E00000000000000000000000000000000000DD
:1033F00000000000000000000000000000000000CD
:1034000000000000000000000000000000000000BC
:1034100000000000000000000000000000000000AC
:10342000000000000000000001000000000000009B
:103430000E33CDAB34126DE6ECDE05000B00000060
:10344000000000000000000000000000000000007C
:10345000000000000000000000000000000000006C
:10346000000000000000000000000000000000005C
:10347000000000000000000000000000000000004C
:0400000508002AC9FC
:00000001FF
