:020000040800F2
:1080000000000220C94D0108558300082D83000897
:10801000698300086D830008718300080000000078
:108020000000000000000000000000007583000850
:1080300079830008000000007D830008154E0108C8
:10804000154E0108154E0108154E0108154E010880
:10805000154E0108154E0108154E0108154E010870
:10806000154E0108154E0108154E0108154E010860
:10807000154E0108154E010851880008154E0108DB
:10808000154E0108154E0108154E0108154E010840
:10809000154E0108154E0108154E0108154E010830
:1080A000154E0108154E0108154E0108154E010820
:1080B000154E0108154E0108B5CD0008154E0108F2
:1080C000154E0108154E0108154E0108154E010800
:1080D000154E0108154E0108154E0108154E0108F0
:1080E000154E0108154E0108154E0108154E0108E0
:1080F000154E0108154E0108154E0108154E0108D0
:10810000154E0108154E0108154E0108154E0108BF
:10811000154E0108154E0108154E0108154E0108AF
:10812000154E0108154E0108154E0108154E01089F
:10813000154E0108154E0108154E0108154E01088F
:10814000154E0108154E0108154E0108154E01087F
:10815000154E0108154E0108154E0108154E01086F
:10816000154E0108154E0108154E0108154E01085F
:10817000154E0108154E0108154E0108154E01084F
:10818000154E0108154E0108000000000000000017
:10819000207E030800000020C0000120C000012054
:1081A00060580120404A414BD2F88810404841F4C1
:1081B0007001C2F888101968002241F001011960AD
:1081C0009A60196821F0847121F480311960586037
:1081D000196882B021F480211960DA60009201925E
:1081E0001A6842F480321A601A4603E0009BB3F525
:1081F000A06F09D0136803F400330193009B01338F
:108200000093019B002BF1D0284B1B6813F4003323
:1082100018BF01230193019B012B14D0234A254B46
:10822000916821F400019160C2F88430136843F032
:108230008063136013681B01FCD51B4B4FF0006279
:108240009A6002B07047194B1B4A186C1B4940F0EA
:1082500080501864106840F4404010609A689A603A
:108260009A6842F400429A609A6842F4A0529A6076
:1082700059601A6842F080721A6019460B680B4AFE
:108280009801FBD50E4B40F205611960936823F00D
:1082900003039360936843F002039360936803F0D1
:1082A0000C03082BFAD1B9E700ED00E000380240DA
:1082B0001030002480400030007000400854400717
:1082C000003C0240154B9A6802F00C02042A23D0AD
:1082D000082A09D0124A1149124B8968C1F30311C7
:1082E000595CCA401A617047586859685B68420215
:1082F0004CBF0D4A0A4A01F03F01C3F38813B2FB99
:10830000F1F202FB03F2054B5B68C3F30143013357
:108310005B00B2FBF3F2DEE7034ADCE70038024021
:108320000024F4000000002000127A001EF0040F68
:108330000CBFEFF30880EFF3098000F00DB80000E8
:10834000704700BF88428CBFC1EB0000C0EB01004A
:10835000704700BFFEE700BF024B818A028B598342
:108360001A83FCE700180240FEE700BFFEE700BFEB
:10837000FEE700BFFEE700BFFEE700BFFEE700BF6D
:108380000120704770B5354C4FF4961306460D46E4
:10839000236004E023685A1E2260002B5BD0304823
:1083A0004FF400310AF052F90028F3D12C48012192
:1083B0000AF01CF84FF48053236004E023685A1E2F
:1083C0002260002B47D0264826490AF02BF90028C6
:1083D000F4D02348342100220AF024F84FF48053CB
:1083E000236004E023685A1E2260002B33D01C480F
:1083F0001D490AF017F90028F4D0C5F3002141EA1D
:108400004601C9B216480AF0A5F84FF4805323601C
:1084100003E023685A1E2260EBB1114813490AF0A9
:1084200001F90028F5D0E9B20D480AF093F84FF4AD
:108430009613236003E023685A1E22605BB108484C
:108440000B490AF003F90028F5D00548012109F08D
:10845000DBFF002070BD012070BD00BF14000020B4
:108460000058004001000300820007008000070060
:108470000400001038B50F200021FFF783FF054DE1
:108480000024E0B235F8021F0134FFF77BFF0A2C0D
:10849000F7D138BD964F0108F0B5164C85B00121D3
:1084A0004FF480000AF0D6FA04AD204609F0D8FE59
:1084B0004CF250334FF0000E4FF48062204645F8E6
:1084C000103D4BF6FF774FF4804333260121ADF882
:1084D00004E0ADF80A20ADF80C30ADF80670ADF848
:1084E000086009F075FF2046694609F0EFFE05B007
:1084F000F0BD00BF0058004030B5124C85B00546B5
:1085000001214FF480400AF0A5FA20460AF070FBE2
:1085100000224FF40073204669460324ADF8022080
:10852000ADF80C20ADF80030ADF806300295ADF88E
:1085300004400AF0BDFB694603480AF0A7FC05B0F9
:1085400030BD00BF0038004000340040F0B5294C79
:10855000294E83B0062001210AF058FA0025012394
:108560000227204669464FF440628DF8063000929B
:108570008DF804708DF805508DF8075009F0BCFD9A
:1085800020460A21042209F057FE042220460B212E
:1085900009F052FE204669464FF4704300938DF86F
:1085A00004708DF805508DF806508DF8075009F0CD
:1085B000A3FD402369463046009309F09DFD204607
:1085C0000C21052209F038FE20460D21052209F074
:1085D00033FE20460F21052209F02EFE20460E21F3
:1085E000052209F029FE30460621052209F024FE65
:1085F00003B0F0BD00040240000802402DE9F04144
:1086000084B08046FFF7A2FF01214FF480000AF0FA
:1086100021FA04AE2748284D09F022FE4CF25033CF
:108620004BF6FF7E3322002446F8103D4FF480477E
:108630004FF480631F48ADF806E00121ADF8082033
:10864000ADF80A30ADF80440ADF80C7009F0C0FE8A
:108650006946184809F03AFE012138460AF0FAF94D
:1086600016480AF0C5FA4FF400730322694613480E
:10867000ADF80420ADF80030ADF80630CDF8088034
:10868000ADF80240ADF80C400AF012FB69460C4808
:108690000AF0FCFB21460F20FFF774FEE0B235F82C
:1086A000021F0134FFF76EFE0A2CF7D104B0BDE8BB
:1086B000F08100BF00580040964F0108003800408C
:1086C000003400402DE9F84F364C374D4FF4001080
:1086D00001210AF09BF9204600210AF045FD2046C1
:1086E0000AF060FC314B324A5A601946204640225B
:1086F00000244FF6FE7B4FF4806A4FF400694FF47C
:1087000000584FF480774FF40036DA601C609C60AC
:108710005C61DC621C635C639C63C3F810B0C3F8EB
:1087200018A0C3F81C90C3F820805F629E620AF014
:10873000D1FC01221F4802210AF0F0FB2146284605
:108740000AF012FD28460AF02DFC1B4B1B4AC3F809
:1087500010B04FF0C06E194628469C60DC605C612A
:10876000C3F818A0C3F81C90C3F820805F629E6213
:10877000DC621C635C639C63C3F800E05A600AF02F
:10878000A9FC28469E2101220AF072FD0C4B0D48DF
:108790004FF4804201211A600A46BDE8F84F0AF002
:1087A000BDBB00BF7060024058600240BC040120A5
:1087B0000C38004000380040440401200C340040D4
:1087C00000E100E000340040F8B5174B174F184E99
:1087D000184A194D19489A60194680243A601C615C
:1087E00035600AF077FC164B16489D6019461C61EF
:1087F0000AF070FC114801210AF0B6FC1148012171
:108800000AF0B2FC1048838B5A0509D50F48838BB8
:108810005B0500D5F8BD0121BDE8F8400AF0E0BADB
:1088200001210AF0DDFAF1E7BC040120F80401207F
:1088300040020120440301204402012070600240F4
:1088400044040120586002400038004000340040D9
:1088500008B54FF082511B480AF0D2FC4FF09051FE
:1088600018480AF0CDFC4FF0885116480AF0C8FCB1
:1088700014484FF0C0510AF0C3FCA0B911484FF0A2
:10888000A0510AF0BDFC00B908BD0F4B0F4A196892
:108890001068012204F04AFB0A484FF0A051BDE8DD
:1088A00008400AF0CBBC084B084A196810688031B0
:1088B0008030002204F03AFB02484FF0C0510AF029
:1088C000BDFCDBE758600240F804012040020120B3
:1088D000054B064A03F5906052F8041F43F8041B49
:1088E0008342F9D1704700BF38050120A84F010825
:1088F000C54B2DE9F00F1B78023BDBB2032B2DEDAE
:10890000068BC24B40F2F1801978C14CC14ADFEDB1
:10891000C27A92ED017A92ED02AAD2ED006A01EBE1
:10892000C10104EBC10393ED000AD3ED010AD3EDBD
:10893000029A93ED031AD3ED041A93ED059A93ED81
:10894000062AD3ED072AD3ED088A93ED093AD3ED31
:108950000A3A93ED0B8A93ED0C4AD3ED0D4AB8EE2B
:10896000665AF8EE475AD2ED036AB8EE4A6A69EEE3
:10897000A79A92ED04AA20EE270A60EEA70A21EE3C
:10898000271AB8EE667A29EE279AF8EE4A6A68EE58
:10899000A78A28EE278A61EEA71A22EE272A62EE1E
:1089A000A72A23EE273A63EEA73A24EE274A64EE7D
:1089B000A74A20EE050A60EE850A21EE251A29EE67
:1089C000855A61EEA51A22EE062A69EE255A62EE54
:1089D000862A23EE073A28EE866A63EE873A24EE6B
:1089E000264A28EE077A64EEA64ABCEEC55ABCEECB
:1089F000C00AFCEEE00ABCEEC11A15EE104A10EEF9
:108A0000106A10EE905A11EE101AFCEEE55ABCEE08
:108A1000C66ABCEEC77AFCEEE44AFCEEE11ABCEE94
:108A2000C22AFCEEE22ABCEEC33AFCEEE33ABCEE0C
:108A3000C44A15EE90AA11EE90BA12EE109A12EEF8
:108A4000908A16EE10CA13EE107A0680458013EE57
:108A5000906A17EE105A8480C18014EE104A14EE0A
:108A6000901AA0F808B0A0F80AA0A0F80C90A0F8FE
:108A70000E8047828682C5820483A0F810C041839D
:108A800092ED057A93ED0E5AD3ED0F5A93ED106ADD
:108A9000D3ED114AB8EE477A25EE275A65EEA75A6C
:108AA00026EE276A64EEA77A65EE875A26EE076AF5
:108AB00065EE266A27EE877ABDEC068BFCEEE66A49
:108AC000FCEEE55ABCEEC66ABCEEC77A16EE904ADA
:108AD00015EE901A16EE102A17EE103A8483C18311
:108AE00002844384BDE8F00F70471A78484902EBCE
:108AF000C20201EBC20393ED008A93ED010AD3EDAC
:108B0000020A93ED031AD3ED041A93ED052AD3ED6F
:108B1000062A93ED073AD3ED083A93ED094AD3EDCF
:108B20000A4A93ED0B5AD3ED0C5A93ED0D6AD3ED2F
:108B30000E6A93ED0F7AD3ED107ABCEEC88ABCEEC4
:108B4000C00AFCEEE00ABCEEC11AFCEEE11A18EE17
:108B5000107A10EE106A10EE905A11EE104A11EED3
:108B6000901ABCEEC22AFCEEE22ABCEEC33AFCEE3E
:108B7000E33ABCEEC44AFCEEE44ABCEEC55AFCEE55
:108B8000E55ABCEEC66AFCEEE66ABCEEC77A12EEA7
:108B9000102A12EE90BA13EE10AA13EE909A14EE69
:108BA000108A0780468015EE107A15EE906A85804F
:108BB000C48016EE105A16EE904A0181FCEEE77A58
:108BC00014EE90CA17EE101A4281A0F80CB017EEFE
:108BD000902AA0F80EA0A0F81090A0F81280C782EA
:108BE000068345838483A0F814C0C183D3ED117A32
:108BF0000284BDEC068BFCEEE77ABDE8F00F17EEC1
:108C0000903A4384704700BF00010120C400012056
:108C100038050120FC560120000080392DE9F04F75
:108C2000A34B1978BFB000230529209321932293E9
:108C300023932493259326932793289329932A9368
:108C40002B932C932D932E932F9330933193329318
:108C500033933493359336933793389339933A93C8
:108C60003B933C933D9300F02F81924A5378C3F19C
:108C70000103DBB20629537000F03E828E49DFED1E
:108C80008F7A91ED007A002B75D18D4BB4EEE77A97
:108C90001878F1EE10FAA8BFF0EE477A002800F03D
:108CA0006782002011900B90DFED847A91ED017ABC
:108CB0005878B4EEE77AF1EE10FAA8BFF0EE477AF2
:108CC000002800F08483002012900C90DFED7B7A66
:108CD00091ED027A9878B4EEE77AF1EE10FAA8BF37
:108CE000F0EE477A002800F06283002013900D9088
:108CF000DFED727A91ED037AD878B4EEE77AF1EE8F
:108D000010FAA8BFF0EE477A002800F04083002058
:108D100014900E90DFED697A91ED047A1879B4EE33
:108D2000E77AF1EE10FAA8BFF0EE477A002800F0DB
:108D30001E83002015900F90DFED607A91ED057A8B
:108D40005B79B4EEE77AF1EE10FAA8BFF0EE477A5D
:108D5000002B40F0E5825B4B93ED057AF7EE006A5D
:108D600076EEC76A27EE877A66EEA77A8DED167AD9
:108D7000CDED107A00E1524BB4EEE77A1878F1EEBF
:108D800010FAA8BFF0EE477A002800F00182002018
:108D9000CDED0B7A1190DFED497A91ED017A58789B
:108DA000B4EEE77AF1EE10FAA8BFF0EE477A0028A9
:108DB00040F0D882434890ED017AF7EE006A76EEF3
:108DC000C76A27EE877A66EEA77A8DED127ACDED27
:108DD0000C7ADFED3A7A91ED027A9878B4EEE77A80
:108DE000F1EE10FAA8BFF0EE477A002840F0B58205
:108DF000344890ED027AF7EE006A76EEC76A27EE05
:108E0000877A66EEA77A8DED137ACDED0D7ADFEDD8
:108E10002B7A91ED037AD878B4EEE77AF1EE10FA76
:108E2000A8BFF0EE477A002840F09282254890EDE6
:108E3000037AF7EE006A76EEC76A27EE877A66EE67
:108E4000A77A8DED147ACDED0E7ADFED1C7A91EDD7
:108E5000047A1879B4EEE77AF1EE10FAA8BFF0EED2
:108E6000477A002840F06F82164890ED047AF7EEBA
:108E7000006A76EEC76A27EE877A66EEA77A8DEDEE
:108E8000157ACDED0F7ADFED0D7A91ED057A5B79EC
:108E9000B4EEE77AF1EE10FAA8BFF0EE477A002BB5
:108EA0003FF459AF0023CDED107A169364E000BF74
:108EB00000010120C4000120C8010120CDCC4C3D9F
:108EC00068570120AC010120BE4BBF4A1978012030
:108ED0005070002900F0408100204FF07E51119029
:108EE0000B915978002940F09282B849D1ED017A6E
:108EF000B7EE007A37EE677ACDED127A8DED0C7A07
:108F00009978002940F08F82B049D1ED027AB7EE0E
:108F1000007A37EE677ACDED137A8DED0D7AD97838
:108F2000002940F07A82A949D1ED037AB7EE007AA0
:108F300037EE677ACDED147A8DED0E7A1979002926
:108F400040F07D82A149D1ED047AB7EE007A37EE88
:108F5000677ACDED157A8DED0F7A5B79002B40F0B5
:108F600068829A4BD3ED057AB7EE007A37EE677ACE
:108F7000CDED167A8DED107A1778954A954B1178CC
:108F80005578967892F80380029111795279049578
:108F90000696DD781E79099293F800A09A7893F8E6
:108FA00001B05B79009207EBC707CDF81C800891F0
:108FB000019503960593DFF820E2FF0020AA0DF14A
:108FC00082044FF000091EE09B4500F09081009D57
:108FD0009D4200F08F81019E9E4200F08E81DDF85F
:108FE0000C80984500F08C81DDF81480984500F0E5
:108FF0008A8109F10109B9F1140F02F1060204F1A5
:10900000060400F083815FFA89F39A45DCD1029867
:1090100000218B003EAD1D4455ED337AF5EEC07A4C
:10902000F1EE10FA2ADD34F8025C5688B2F804C07A
:109030002E4416EB0C0F40F01A8101EB410507EBB3
:1090400085057544D5ED006A95ED017A95ED026AC6
:1090500067EEA66A27EE877A67EE867AFCEEE66A06
:10906000BCEEC77AFCEEE77A16EE90CA17EE106AED
:1090700017EE905A24F802CC568095800DF1F8082E
:10908000434453ED2D7AF5EEC07AF1EE10FAB0DDDF
:10909000C0B245002B1808EB430301EB410133F844
:1090A000786C33F876CC33F8748CB44407EB8101D8
:1090B0001CEB080F714440F09180D1ED006A91EDF6
:1090C000017A91ED026A67EEA66A27EE877A67EE6B
:1090D000867AFCEEE66ABCEEC77AFCEEE77A16EE1C
:1090E000905A17EE100A17EE901A23F8785C23F8BE
:1090F000760C23F8741C7CE7002B59D0314B19787F
:10910000002900F0788100204FF07E5111900B91E2
:109110005978002940F06B8100210C9112919978C7
:10912000002940F00C8100210D911391D97800297C
:1091300040F0FA8000210E9114911979002940F035
:10914000FA8000210F9115915B79002B40F0E880A7
:109150000023109316930FE71C49D1ED007AB7EE68
:10916000007A37EE677ACDED117A8DED0B7AB8E69D
:10917000164890ED007AF7EE006A76EEC76A27EEA1
:10918000877A66EEA77A8DED117ACDED0B7A8BE5B5
:109190000E4890ED007AF7EE006A76EEC76A27EE89
:1091A000877A66EEA77A8DED117ACDED0B7AF2E52E
:1091B000044B1978002900F01E81002111910B91B8
:1091C000A6E700BF68570120C4000120AC010120C0
:1091D00050570120F85701203805012091ED006A11
:1091E00091ED017AD1ED026A33F876CC33F8741C34
:1091F00027EE866A27EE877ABCEEC66A67EEA67A05
:1092000016EE108ABCEEC77A4644FCEEE77A17EEFB
:10921000108AC44417EE908A23F8786CB6B24144A1
:10922000B6F5806F23F8741C28BF40F2FF3123F895
:1092300076CC28BF23F8781C2B183EA901EB4303FA
:10924000284433F8761CB1F5806F24BF40F2FF311B
:1092500023F8761C3EAB03EB400030F8743CB3F5CA
:10926000806F24BF40F2FF3320F8743CC1E601EB6D
:10927000410607EB8606764496ED006A96ED017A84
:10928000D6ED026A27EE866A27EE877ABCEEC66ABA
:1092900067EEA67A16EE106ABCEEC77A3544FCEE8D
:1092A000E77A24F8025CB2F80280B2F804C017EE44
:1092B000106A17EE905A464465445680958034F8FB
:1092C000025CB5F5806F24BF40F2FF3524F8025CE4
:1092D0005588B5F5806F24BF40F2FF3555809588DD
:1092E000B5F5806F24BF40F2FF359580C6E604983F
:1092F00001218EE6069802218BE60798032188E675
:109300000898042185E60998052182E617A8FFF749
:10931000EFFA20A817A905F049FA3FB0BDE8F08F91
:1093200000231693109327E6002114910E911979CA
:1093300000293FF406AF002115910F9104E70021A9
:1093400013910D91F2E60020CDED0F7A15909AE57C
:109350000020CDED0E7A149077E50020CDED0D7A4A
:10936000139054E50020CDED0C7A129031E537488A
:1093700090ED047AF7EE006A76EEC76A27EE877AF8
:1093800066EEA77A8DED157ACDED0F7AD4E42F48ED
:1093900090ED037AF7EE006A76EEC76A27EE877AD9
:1093A00066EEA77A8DED147ACDED0E7AB2E42748F9
:1093B00090ED027AF7EE006A76EEC76A27EE877ABA
:1093C00066EEA77A8DED137ACDED0D7A90E41F4805
:1093D00090ED017AF7EE006A76EEC76A27EE877A9B
:1093E00066EEA77A8DED127ACDED0C7A6EE400214F
:1093F00012910C9193E61549D1ED007AB7EE007AFF
:1094000037EE677ACDED117A8DED0B7A80E600208C
:109410004FF07E5112900C9172E500204FF07E517A
:1094200014900E918AE500204FF07E5113900D911B
:1094300075E500214FF07E53169110939CE50020B6
:109440004FF07E5115900F9187E500BFAC010120D0
:109450002DE9F04FDFF800C4DFF800E49CF802309B
:10946000032BBFB098BF01334FF063074FF0633257
:1094700094BFD8B2002000238CF8020001900F9214
:1094800010921192129213921492159216921792B0
:10949000189219921A928DF86C708DF86D708DF883
:1094A0006E708DF86F708DF870708DF871708DF82A
:1094B00072708DF873708DF874708DF875708DF80A
:1094C00076708DF87770039304938DF814308DF8CF
:1094D00015308DF816308DF878709EF900609EF981
:1094E00001509EF902409EF903009EF904109EF976
:1094F00005208DF879700DF1F80EB6448DF87A706C
:109500001EF8EC9C8DF87B708DF87C708DF87D706A
:109510009CF800C0CDF800C03EAF2F4409F1010C0B
:109520000EF8ECCC17F8EC8C0DF1F80EA64408F10F
:10953000010C07F8ECCC1EF8ECCC3EAF07440CF164
:10954000010A0EF8ECAC17F8ECEC0DF1F80A8A44BD
:109550000EF1010B07F8ECBC1AF8EC7C07F1010BDB
:109560000AF8ECBC06EB46060DF1F80B0DF1F80A13
:1095700092440BEB460605EB450504EB440400EB77
:1095800040000BEB45050BEB44040BEB40004E4455
:1095900001EB410102EB420270440BEB41010BEB8A
:1095A000420264441AF8ECBC06F8BC3C454401266F
:1095B0004FF0020C4FF0030E05F8BC6C394404F870
:1095C000BCCC5A4400F8BCEC0198B34404270526EF
:1095D00001F8BC7C0AF8ECBC02F8BC6C002800F076
:1095E000BE800099964CDFF86CE2964F01EBC10506
:1095F000B046ED001A460FAE4FF00F0C2AE012F8FD
:109600000E108A440DF1F80909EB40011AF8BC0C60
:1096100000EB400005EB80003844D0ED006A90ED8F
:10962000017AD0ED027AFCEEE66ABCEEC77AFCEE77
:10963000E77A16EE90AA17EE109A17EE900A01320A
:109640000B2A21F878AC21F8769C21F8740C03F1F0
:10965000060328D002F10F000DF1F80902EB420ACF
:10966000C11709EB4A0A84FB00B9C1EBE90116F8FE
:10967000039001EB8101A0EB8101B9F1630F01EBD4
:109680004100BCD101EB41010DF1F80B0BEB4101A5
:1096900001320B2A21F878CC21F876CC21F8748C91
:1096A00003F10603D6D1684B684F1978684EDFF88E
:1096B000B0E101EB410107EB810120AB00224FF04B
:1096C000320C1CE0D1ED006A91ED017AD1ED027A05
:1096D000FCEEE66ABCEEC77AFCEEE77A16EE905A2C
:1096E00017EE104A17EE900AA3F84E50A3F8504018
:1096F000A3F852000132062AA3F1060312D0B05C8F
:109700000128DFD112F80E0000EB4004FF2807EB20
:10971000840400F08E80D4ED006A94ED017AD4EDDB
:10972000027AD5E7002306A8ADF8A430ADF8A6303C
:10973000ADF8A830ADF8AA30ADF8AC30ADF8AE3029
:10974000ADF8D430ADF8D630ADF8D830FFF7D0F85A
:1097500020A806A905F02AF83FB0BDE8F08F0099CF
:109760003C4DDFF8DC80DFF8DCA001EBC1094FEAFB
:10977000C90903460FAE0DF10C0C4FF00F0B29E099
:10978000EA5C96443EA901EB44021EF8BC1C01EBC6
:10979000410109EB81015144D1ED006A91ED017A5B
:1097A000D1ED027AFCEEE66ABCEEC77AFCEEE77A0F
:1097B00016EE907A17EE104A17EE901A22F8787C7F
:1097C00022F8764C22F8741C01330B2B00F10600B2
:1097D0003FF469AF03F10F013EAA03EB430E88FB90
:1097E000017402EB4E0ECA17C2EBE402EC5C1CF8EB
:1097F00003700134E4B202EB8202A1EB8202A742C1
:10980000EC5402EB420403D8124F4FF00001D9553B
:10981000315C6329B4D102EB42023EA901EB420262
:109820004FF0050722F878BC22F876BC22F8747C49
:10983000CAE7A3F84EC0A3F850C0A3F852C059E736
:109840006766666638050120FE0101202C54010878
:1098500068570120C8000120C40001206057012082
:109860002058012010B51349A8B001F150040AABEB
:10987000F1EC017AFCEEE77A40F2FF3217EE900A43
:10988000C00BB0F5806F04D8B0F5967F2CBF82B2C4
:109890000022A1421A805A809A8003F10603E7D180
:1098A00001A8FFF725F80AA801A904F07FFF28B056
:1098B00010BD00BFB80901200A4B1A69511CB2F54E
:1098C000FA6F196101D81A7D52B1074AB2F9001036
:1098D00000221A611A7509B9FFF7A0B9FFF7B8BDE0
:1098E000704700BFC4000120FA010120B54B1B786E
:1098F0001A1FD2B2012AF0B467D9023BDBB2012BA6
:10990000B14B40F2CB80DFEDB17A93ED077A37EEC1
:10991000677AB5EEC07AF1EE10FA71D4F0EE477ABC
:1099200083ED077AAA4A92ED007AB4EEE77AF1EE77
:1099300010FA05DB93F82010A348002940F08E8030
:1099400092ED017AB4EEE77AF1EE10FA04DB93F8C7
:1099500021109D48002979D192ED027AF4EEC77A60
:10996000F1EE10FA05D893F822109748002940F03C
:109970008D8092ED037AF4EEC77AF1EE10FA04D8F6
:1099800093F823109048002978D192ED047AF4EEF0
:10999000C77AF1EE10FA04D893F824108A48002907
:1099A00064D192ED057AB4EEE77AF1EE10FA0ADBB3
:1099B00093F82530844A33B186494FF48040002320
:1099C000088382F82530F0BC70477F4BD98A4A1C47
:1099D00092B2B1F57A7FDA8203D97E494FF46060A2
:1099E0000883B2F5FA6F05D97A4A00204FF4606116
:1099F000D8825183774B4FF4E0425A83F0BC7047D2
:109A000074490122F1EE007A4FF4007C4FF4806734
:109A10004FF400664FF480554FF400544FF48040EB
:109A2000C3ED077AA1F81AC083F820204F8383F88A
:109A300021204E8383F822204D8383F823204C83FA
:109A400083F82420488383F825206BE7614C4FF48A
:109A500080650021258380F821107DE75D4C4FF45F
:109A600000750021258380F8201069E7594C4FF4D8
:109A700000550021258380F8241092E7554C4FF4BF
:109A800080550021258380F823107EE7514C4FF448
:109A900000650021258380F822106AE71A7E002ADB
:109AA00040D1D88A42F21074411C89B2A042D982B6
:109AB00018D9DA82114641F28833994240F0A680E3
:109AC000444B4FF480404FF4005218835A830029CE
:109AD0007FF479AF3F4B4FF400714FF480621983EC
:109AE0005A8370E742F22833994200F08880B1F53A
:109AF000FA5F54D041F65833994240F0A480354B78
:109B00004FF480504FF4005218835A83B1F5FA6F26
:109B100040F0A5802F4B4FF400614FF48062198311
:109B20005A8350E7D98A42F210704A1C92B281429D
:109B3000DA8217D90022DA8241F288339A4277D149
:109B4000244B4FF480404FF4005158831983002A6E
:109B50007FF439AF1F4B4FF400714FF4806259838B
:109B60001A8330E742F228339A425AD0B2F5FA5FAC
:109B700032D041F658339A427DD1164B4FF4805083
:109B80004FF4005158831983B2F5FA6F7FD1114B0E
:109B90004FF400614FF4806259831A8313E70D4B31
:109BA0004FF400604FF4805218835A8340F6B83364
:109BB0009942ABD1074B4FF480514FF400621983A7
:109BC0005A8300E700010120C40001200AD7A33D09
:109BD000C801012000180240334B4FF400604FF4DD
:109BE00080515883198340F6B8339A42CCD12E4B1A
:109BF0004FF480514FF4006259831A83E3E62A4BF5
:109C00004FF480604FF4006218835A83B1F57A6F85
:109C1000CCD1254B4FF400514FF4805219835A8315
:109C2000D1E6214B4FF480604FF4006158831983D3
:109C3000B2F57A6FD7D11C4B4FF400514FF48052DC
:109C400059831A83BFE641F2707399427FF433AFB0
:109C5000154B4FF400504FF4804218835A83B1F5EE
:109C60007A7F7FF434AF104B4FF480614FF4007271
:109C700019835A83A7E641F270739A427FF45CAF6E
:109C8000094B4FF400504FF4804158831983B2F5CB
:109C90007A7F7FF45CAF044B4FF480614FF4007225
:109CA00059831A838FE600BF00180240F8B5484B6D
:109CB0001B789A1ED2B2012A2CD91A1FD2B2012ABD
:109CC00074D9062B60D0434D2B6B40F2DC52591CEB
:109CD0009342296316D9AB6A3F4E404F01330F2B95
:109CE00088BF00230024AB622C633B5D5BB1AB6A91
:109CF0004BB9335D2046002B42D002F001FF013406
:109D0000062CF2D1F8BD335D2046002BF5D002F0D1
:109D1000EDFEF4E72F4D324EAB6A42F228320133AA
:109D2000934288BF0023AB62EB6A2A4A0133B3F542
:109D30007A5F88BF0023D362002409E0EB6AB3F5A1
:109D40007A6F204612D902F0D1FE0134062C12D0CF
:109D50003278E3B29A4218460ED001F099FE0028FC
:109D6000ECD1AB6AB3F5FA5F2046ECD8013402F0CF
:109D7000C7FE062CECD1F8BD104602F0B7FEE4E7B2
:109D8000204602F0B3FEBAE7164D002404E0013489
:109D900002F0ACFE062C08D02B782046002BF6D122
:109DA000013402F0ADFE062CF6D1F8BD0A4E0024B7
:109DB00004E0013402F09AFE062C08D0335D204600
:109DC000002BF6D1013402F09BFE062CF6D1F8BD33
:109DD00000010120C400012068570120F401012086
:109DE00018000020100101202DE9F04FD449D54A78
:109DF000D54B125C1A7089B00446085CD34DD44F21
:109E0000DFF894A3DFF894B303F072F8D14BD24992
:109E10001B78069360000490204443001D44CE1834
:109E2000DFF82CC36D781CF8039076780195DFF885
:109E30005CC3CA4D11F803806E701F449C44F6B297
:109E4000C74D7F780096C14E6F709CF801C0C54D1C
:109E5000CDF81CC016F803C0019E6E70CDF81480BA
:109E6000BE4D059E2E70C04DDFF83483BF4ADFED36
:109E7000C07AF6B22E70BF4D2E70B94EBE4D86F828
:109E80000090C0008044BD4E98ED007A5FFA89F9D9
:109E900085F8009086F80090D8F80490DFF8E88202
:109EA000B74E079D75709844B64DB74E98F801802F
:109EB00085F8018016F80380B44DB24EEB5C8AED54
:109EC000007A86F8008002EB00081658D8F80400E3
:109ED000DFF8C082A34DC8F80060C8F80400DDF8C0
:109EE000188085F800C0BCF1000FA44DCAF804909A
:109EF000DFF88492A24EA6483370FFB208BF98469E
:109F00006F70CDF8188089F80170DFF86882964F7D
:109F1000019D009ECBED007A4FF0000C80F800C050
:109F200014BF634601237E7088F80160CBED017A8F
:109F300080F801C01DB9002B00F0A0810123049F0F
:109F4000DFF81892DFF808C2804E27447D0001EB4D
:109F50000508AC4498F8028089F80280DFF808927E
:109F60009CF802C05FFA88F889F80280DFF8049252
:109F700089F80280DFF81092DFF810822E44A8449E
:109F80004D44DFF8DC91B67889F802C0DFF8E8913B
:109F9000AD7898F802805FFA8CFC89F802C0DFF88F
:109FA000DC91FF0089F802C0DFF8F49102EB070CA6
:109FB0004F44D7ED027ADCF80870DFF8A8C1DFF86B
:109FC000C0918CF80260DFF8BCC189F802808CF87F
:109FD0000250704DCAED027AAF6000250027CBF821
:109FE000087085701EB9002B00F045810123049F85
:109FF000DFF86891DFF858C1544E27447D0001EB2B
:10A000000508AC4498F8038089F80380DFF858917C
:10A010009CF803C05FFA88F889F80380DFF8549150
:10A0200089F80380DFF86091DFF860812E44A8444E
:10A030004D44DFF82C91F67889F803C0DFF83891A9
:10A04000ED7898F803805FFA8CFC89F803C0DFF89C
:10A050002C91FF0089F803C0DFF8449102EB070C54
:10A060004F44D7ED037ADCF80C70DFF8F8C0DFF866
:10A0700010918CF80360DFF80CC189F803808CF82C
:10A080000350444DCAED037AEF6000250027CBF85A
:10A090000C70C5701EB9002B00F0EA800123049FEC
:10A0A000DFF8B890DFF8A8C0284E27447D0001EB08
:10A0B0000508AC4498F8048089F80480DFF8A8907B
:10A0C0009CF804C05FFA88F889F80480DFF8A4904F
:10A0D00089F80480DFF8B090DFF8B0802E44A844FF
:10A0E0004D44DFF87C90367989F804C0DFF8889019
:10A0F0002D7998F804805FFA8CFC89F804C0DFF8A9
:10A100007C90FF0089F804C0DFF8949002EB070C04
:10A110004F44D7ED047ADCF81070DFF848C0DFF860
:10A1200060908CF80460DFF85CC089F804808CF8DB
:10A130000450184DCAED047A2F610025002731E044
:10A14000980A0120240F0120C4000120DC0E012008
:10A15000000F0120FE010120500F0120F8570120BF
:10A160004858012068570120485701204C0E012013
:10A17000000000005057012058570120605701206F
:10A1800020580120F4010120740F01202C0F012020
:10A190002857012028580120C4570120305701209A
:10A1A000080A0120CBF81070057116B9002B5CD09D
:10A1B0000123049DDFF8E880DFF8E8C0314EDFF8C6
:10A1C000E890314F2C4465002944E400497988F82F
:10A1D0000510DFF8D880AC44224444442E442F4478
:10A1E0004D44D4F814909CF80540DFF8C4C076794B
:10A1F0008CF80560DFF8BCC06D7952690292C9B273
:10A200008CF80510DFF8B0C07F798CF80510DFF806
:10A21000ACC01E49CAF81490F6B28CF80560DFF89D
:10A22000A0C04E711A491B4E8CF805501A4D4F7143
:10A230004FF000080022029974716961CBF8148014
:10A24000427147B9069E154F002B08BF26463E7047
:10A2500009B0BDE8F08F114906980870002BF7D1BE
:10A2600033780B7009B0BDE8F08FCDF818809FE708
:10A27000CDF8188012E7CDF81880B7E6079E06964D
:10A280005CE600BF000F0120DC0E012058570120C2
:10A29000685701202058012028580120FE01012084
:10A2A000F85701202C0F0120740F0120080A01200B
:10A2B000485801204857012050570120605701207D
:10A2C000F40101202DE9F00FDFF8E0A16C4B9AF8C2
:10A2D00000A0DFF8DCB103F800A0DFF8D8A16949DD
:10A2E000DFF8D4819BF800B00AF800B000EB400919
:10A2F0004FEA490008EB000B634A91F800A008F808
:10A3000000A0DFF8B8C191F801808BF8018092F8C5
:10A3100000800CF800800CEB000ADFF8888192F8CE
:10A3200001C05A4F8AF801C098F800C007F800C071
:10A33000074498F801C0DFF86881554E87F801C0DE
:10A3400098F800C006F800C0064498F801C0DFF88D
:10A350005881504D86F801C098F800C04E4B05F862
:10A3600000C005444FEAC90998F80100DFF850C160
:10A370006870DFF850811868484C4CF80900CC44EC
:10A380005868CCF80400C144206894ED017AC9F8FB
:10A390000000DFF81081887889ED017A8BF80200DF
:10A3A00090788AF8020098F80200DFF8F480B8701C
:10A3B00098F80200DFF8F080B07098F80200A870FA
:10A3C0009868CCF80800DFF8DC80C8788BF80300C8
:10A3D000D0788AF8030098F80300DFF8C480F8709A
:10A3E00098F80300DFF8C080F07098F80300E87078
:10A3F000D868CCF80C00107991F804808AF8040031
:10A400002748D4ED037A94ED027A8BF8048082B069
:10A41000DFF89080007989ED027AC9ED037A98F827
:10A4200004800190019830711D485279009287F89C
:10A4300004801C4A90F805801B4894ED047AD4ED02
:10A44000057A547902794079497901908BF80510A1
:10A45000009819692A715B69019A8AF805007C7174
:10A4600086F805806A71CCF81010CCF8143089EDAC
:10A47000047AC9ED057A02B0BDE8F00F704700BF5D
:10A48000240F0120F8570120485801202C0F0120EB
:10A49000DC0E0120740F012028580120C457012030
:10A4A0006857012020580120F4010120C400012038
:10A4B00090C00020980A0120500F0120000F0120B9
:10A4C0004C0E0120080A0120134B144A03F590603A
:10A4D00052F8041F43F8041B8342F9D1104B114A70
:10A4E00003F5677052F8041F43F8041B8342F9D147
:10A4F0000D4B0E491A788A5C102A09D90C4A0021A2
:10A5000011705A780B4B511E4A424A411A707047DB
:10A5100007490A70F5E700BF38050120940F0120B4
:10A5200020140120AC0A0120F8000120240F012092
:10A53000C4000120DC00012010B4134B134A03F5C2
:10A54000677052F8041F43F8041B8342F9D1104B83
:10A55000104A03F5906052F8041F43F8041B83422D
:10A56000F9D10D4B0D491A780D4C09780D48247816
:10A57000052A84BF00221A70013984544A424A4194
:10A580005A705DF8044B7047B00A01201C1401207A
:10A59000980F012034050120F8000120DC00012083
:10A5A000C4000120240F01202DE9F84F3B483C4C0A
:10A5B000DFF848813B4FDFF848B1DFF848A1DFF80A
:10A5C000489107F007FD00F1AB4303F52C13364823
:10A5D000636007F001FD00F156033448237007F073
:10A5E000FBFC002560702E462C463148204407F0C5
:10A5F000F3FC30490BF8060021440AEB0500062263
:10A6000007F0DAFC2C4909EB05002144062207F08B
:10A61000D3FC2A492A4821442844062207F0CCFCCE
:10A620002849294821442844062207F0C5FC274927
:10A63000274821442844062207F0BEFC2549182259
:10A640002144404607F0B8FC2348204407F0C4FCEE
:10A65000224B98552248204407F0BEFC214B22494A
:10A66000985518222144384601369044174407F083
:10A67000A3FC062E05F1060504F1A004B5D11B4983
:10A680001B484FF4906207F097FC1A481A494FF4A0
:10A690006772BDE8F84F07F08FBC00BF00400008AC
:10A6A000F8000120080A01200440000805400008C5
:10A6B00086400008874000088D400008934000084D
:10A6C0002C0F012099400008DC0E01209F4000085B
:10A6D000740F0120A5400008BD400008980A012021
:10A6E000BE400008240F0120BF40000800480008B9
:10A6F000980F0120B00A0120007C00084C0E0120B8
:10A70000A00A0120500F0120000F01202DE9F04F79
:10A7100009480A4C8BB007F05DFC094B00F1AB42D5
:10A72000034402F52C12B3F5F97F62600AD9FF20C9
:10A7300020700BB0BDE8F08F00400008F800012049
:10A74000FFFFAA55FFF730FFD04BD14A03F59060C9
:10A7500052F8041F43F8041B8342F9D1CD4BCE4A73
:10A7600003F5677052F8041F43F8041B8342F9D1C4
:10A770002578CA4BCA485B5D6178102B86BF0022E2
:10A78000027003704E1E7142C64A7141052D117050
:10A7900000F28382C44A565D012E40F07E82C34A95
:10A7A00003706F00505DDFF810B3DFF8488302F0EC
:10A7B0009FFBBC46AC444FEA4C029344CDF81CB01E
:10A7C00007980697BA4F407808904FEACC0ADFF80E
:10A7D00028C3B8481CF802C0CDF814C007EB020922
:10A7E000DFF8DCC299F801B098F80030DFF8088390
:10A7F0008CF801B010445FFA8BFB9044CDF824B084
:10A8000090F801B0AC4898F80190CDF81CB010F861
:10A8100002B0AA4817F8028080F801905FFA89F91F
:10A82000CDF80490DFF8D492089889F80100A44884
:10A83000DFF8AC9280F80080A248DFF8C4C2A249D9
:10A84000DFEDA27A5FFA88F889F8008080F800804E
:10A850000598DFF86882DFF8909288F80000D44409
:10A860005FFA80F89A4889F800809CED007ADFF85A
:10A870006C9280F80080DCF80480DFF868C289ED13
:10A88000007ADFF86892079889F8010094449148AB
:10A89000DFF850929CF801C080F801C019F802C09E
:10A8A000DFF83092834889F800C001EB0A0C825C23
:10A8B000DFF83C9251F80A000490DCF80400C9F873
:10A8C00004000498C9F80000DFF83092824889F843
:10A8D00000B0BBF1000FDFF814B2DFF8F4918BF891
:10A8E000002008BF13467D4AC0ED007AC2F80480FC
:10A8F000DFF8F481019888F8010089F80100DFF899
:10A90000E081DFF8C0910998DFF8F8A188F801002C
:10A9100089F80100DFF8C0B10898CBED017A4FF05B
:10A92000000C8AF800C014BF624601228AF801C0F8
:10A9300010B902B9079B3246DDF818906048DFF87D
:10A94000B8C1DFED627AA9444FEA490607EB060871
:10A950004FEAC90B98F8028080F802806048DFF85F
:10A9600058915FFA88F880F80280564880F8028093
:10A970005C48DFF84081B444B144B04406449CF8DC
:10A9800002C0B67805964D4E574886F802C0504E24
:10A9900099F8029098F802805FFA8CFC80F802C067
:10A9A00086F802C0DFF858C1504801EB0B06DC44C2
:10A9B000DFF848B180F802808BF80290DFF814B11C
:10A9C00005988BF80200DFF814B1DCF808C048489D
:10A9D000B668CBF808C0DFF800C186600026CCED71
:10A9E000027A8AF80260B9F1000F02D102B9434637
:10A9F0000122DDF818903248DFF8FCC0DFED337A31
:10AA0000A9444FEA490607EB06084FEAC90B98F834
:10AA1000038080F803803248DFF89C905FFA88F862
:10AA200080F80380274880F803802E48DFF8848070
:10AA3000B444B144B04406449CF803C0F67805968B
:10AA40001E4E294886F803C0214E99F8039098F8C5
:10AA500003805FFA8CFC80F803C086F803C0DFF83F
:10AA6000A0C0224801EB0B06DC44DFF890B080F870
:10AA700003808BF80390DFF85CB005988BF8030037
:10AA8000DFF858B0DCF80CC03EE000BF380501200C
:10AA9000940F012020140120AC0A0120240F012072
:10AAA000C4000120DC000120A00A0120980A012036
:10AAB000500F01202C0F0120DC0E012048580120EE
:10AAC000F8570120505701204C0E012000000000D3
:10AAD00060570120F401012030570120C4570120A4
:10AAE00048570120740F0120585701202058012099
:10AAF00028580120FE010120000F01206857012085
:10AB0000080A0120285701206948F668CBF80CC0D4
:10AB1000DFF8D4C1C6600026CCED037A8AF8036062
:10AB2000B9F1000F02D102B943460122DDF81890B5
:10AB30006048DFF8A4C1DFED607AA9444FEA490616
:10AB400007EB06084FEAC90B98F8048080F80480E8
:10AB50005A48DFF898915FFA88F880F804805848DE
:10AB600080F804805748DFF88881B444B144B04489
:10AB700006449CF804C036790596534E534886F82F
:10AB800004C0534E99F8049098F804805FFA8CFC46
:10AB900080F804C086F804C0DFF858C14D4801EBC6
:10ABA0000B06DC44DFF838B180F804808BF80490A1
:10ABB000DFF844B105988BF80400DFF820B1DCF829
:10ABC00010C03B483669CBF810C0DFF81CC10661E5
:10ABD0000026CCED047A8AF80460B9F1000F02D1A6
:10ABE00002B9434601220698DFF800C1DFF8C4909D
:10ABF000DFF8D0B005446E003744B4447F799CF848
:10AC0000058089F80570DFF8E8C0DFF8E890324881
:10AC1000ED00B44429444D4430445E44D5F814B0AA
:10AC20009CF80550DFF8A0C040798CF80500DFF8EB
:10AC30008CC0767949690291FFB28CF80570DFF813
:10AC400080C08CF80570214FDFF884C0C0B27871E5
:10AC5000204F8CF805007D71DFF89CC01F4F204805
:10AC60008CF80560C7F814B0114EDFF87CB080F89E
:10AC7000058000214FF0000902988AF805107061E4
:10AC8000CBF814901349B8F1000F0BD0154E337068
:10AC90000AB90A78327020784BE5002020700BB09A
:10ACA000BDE8F08F0F48002A08BF2B460370F2E77B
:10ACB00028580120F85701200000000048570120C3
:10ACC00050570120740F0120485801205857012087
:10ACD0006057012020580120000F0120C457012097
:10ACE00068570120FE01012030570120DC0E0120B1
:10ACF0002C0F0120080A0120F4010120F8B52A4B8D
:10AD0000A025044605FB003007F066F904EB440774
:10AD1000264B274A274910557E00981905FB041138
:10AD2000062207F049F924482449304405FB041160
:10AD3000062207F041F922482249304405FB04115C
:10AD4000062207F039F920482049304405FB041158
:10AD5000062207F031F91E481E49304405FB041154
:10AD6000062207F029F91C481C49FE0005FB0411C6
:10AD70001822304407F020F919481A49182205FB17
:10AD80000411304407F018F9174805FB040007F0D8
:10AD900023F9164B164A105505FB043007F01CF931
:10ADA000144B1855F8BD00BF86400008500F012015
:10ADB000A00A012087400008000F01208D400008F4
:10ADC0002C0F012093400008DC0E01209940000860
:10ADD000740F01209F4000084C0E0120A540000880
:10ADE000080A0120BF400008BD400008BE4000081E
:10ADF000980A0120240F01202DE9F04F83B0434B26
:10AE0000434C019307F0B0F84248434DDFF860B17E
:10AE1000DFF860A1DFF86091404F414E07F014F871
:10AE200060683C4900F12A4000F5AA0007F0AAF842
:10AE300020783C49AA3007F09FF860783A494FF0F3
:10AE4000000807F099F82B4645469846374B384995
:10AE5000585D05EB85046401214407F08DF8354900
:10AE600058460622214407F097F8334950460622F7
:10AE7000214407F091F8314948460622214407F061
:10AE80008BF82F4901980622214407F085F82D49B7
:10AE900038460622214407F07FF82B491822304615
:10AEA000214407F079F8294B2949585D214407F0DE
:10AEB00063F8284B2849585D214407F05DF8019B51
:10AEC0002649182240460633013521440193164491
:10AED000904407F061F8062D0BF1060B0AF1060A03
:10AEE00009F1060907F10607B0D11D491D484FF4C5
:10AEF000906207F051F81C491C484FF4677207F044
:10AF00004BF803B0BDE8F04F07F042B8DC0E01206B
:10AF1000F800012000400008080A0120740F0120F9
:10AF20004C0E01200440000805400008A00A012042
:10AF300086400008874000088D40000893400008C4
:10AF4000994000089F400008A5400008980A012089
:10AF5000BD400008240F0120BE400008BF4000088B
:10AF600000480008980F0120007C0008B00A01206A
:10AF7000500F0120000F01202C0F01202DE9F04F70
:10AF8000BB4ADFF844B3BB4EDFF84083DFEDBA7A4B
:10AF9000BA4FBB4DBB4C0021012083B011705170E2
:10AFA00050608C460B46B84AB849019658464FF057
:10AFB000060EDFF81C9308F80C304FF0FF3609F846
:10AFC0000C60B34E2B704FF0010A06F80CA04FF046
:10AFD00005063E704FF00706DDF804A0BE704FF086
:10AFE0000806FE700CF1010C4FF009068AF800E02B
:10AFF0008AF801E08AF802E08AF803E04FF00A09D3
:10B00000237003700B60C2ED007A87F801E06B706B
:10B01000637043704B60C2ED017AAB70A3708370B4
:10B020008B60C2ED027AEB70E370C370CB60C2ED4F
:10B03000037A3E710AF1060A0AF802ECBCF1060F27
:10B040000AF801EC87F805902B71237103710B61ED
:10B05000C2ED047A6B71637143714B61C2ED057A85
:10B06000CDF804A005F1060504F1060400F1060080
:10B0700001F1180102F118024FF0000907F106076B
:10B0800097D1FDF725FC834C834B844A84F80090CC
:10B0900003F5906052F8041F43F8041B8342F9D172
:10B0A00001F080FA7E4B7F4A03F5677052F8041F67
:10B0B00043F8041B8342F9D105F0C0FD7A4E247891
:10B0C00088F80040DFF8C081D6F800C0DFF8B8A1EA
:10B0D000764FC8F800C0764DD6F80480DFF8B091FE
:10B0E00074483F78CAF80480DFF89081724989F883
:10B0F000007095F800C06F78DFF878916F4A88F893
:10B1000000C088F8017090F800C04778DFF870A19F
:10B110006B4B89F800C089F8017091F800C04F7836
:10B12000DFF860818AF800C08AF8017092F800C0E8
:10B130005778644C88F800C088F8017093F8018053
:10B140008BF80180DFF844812768C8F800706768D1
:10B1500093F800C0C8F80470DFF820818BF800C0B5
:10B16000DFF8249195F802C088F802C0DFF804A146
:10B17000D6F808C0F768C9F808C090F802C08AF885
:10B1800002C0C9F80C70DFF8F88093F80290DFF87D
:10B19000F4A08F7892F802C08BF80290DFF8EC9060
:10B1A00088F802708AF802C0A768DFF8D0A095F886
:10B1B0000380C9F80870DFF8C8908AF80380CF7858
:10B1C000DFF8B08090F803C089F80370DFF8B4A00E
:10B1D00093F8039088F803C08BF8039092F803C0AB
:10B1E000DFF8A880DFF89490E7688AF803C095F844
:10B1F00004C0DFF880A0C8F80C7089F804C0077993
:10B20000DFF87C80DFF87C9091F804C08AF8047045
:10B21000177988F804C0DFF864A089F80470DFF8B3
:10B220005480DFF85C906D79407949798AF805504F
:10B23000D6F810C077692569567964691A7988F853
:10B2400005005B79104889F80510DFF838A00F4930
:10B250008AF80560C0F810C047618BF804208BF8AD
:10B2600005300D614C6103B0BDE8F04FFFF7C4BD80
:10B27000F8000120000F012000000000500F012005
:10B280002C0F0120DC0E0120080A01204C0E0120A9
:10B29000980A0120C4000120980F012034050120E4
:10B2A000B00A01201C140120C457012090C00020C6
:10B2B000F8570120485801202058012068570120E4
:10B2C000F401012028580120740F0120240F0120CF
:10B2D000A00A01202DE9F04F044689B0FFF764F978
:10B2E000052C30D99E4A9F4B117893F800E09E4A76
:10B2F0009E489F4D00F5677755F8046F40F8046B42
:10B30000B842F9D19B489C4D00F5906755F8046F01
:10B3100040F8046BB842F9D1BEF1050F88BF4FF079
:10B32000000E964802F80E10027888BF83F800E0FD
:10B33000511E4A424A415A70FFF75EFD904B1C7005
:10B3400009B0BDE8F08F8F4B8F4F1B78DFF8549218
:10B35000019304EB440C4FEA4C0397F800A009F862
:10B3600003A08A4EDFF84082894D8A488A497C4A88
:10B37000DFF838E21278079209EB030A97F8019098
:10B380008AF8019096F8009008F803909844CDF858
:10B390000880DDF8089096F8018089F8018095F81A
:10B3A000008000F80380184495F8018080F801803F
:10B3B00003907A48DFF8F89190F8008009F803804C
:10B3C000994490F80180764889F80180CDF8109072
:10B3D000DFF8E09190F8008009F803809944CDF8F7
:10B3E00014904378DFF8D0910598DFF8CC81437052
:10B3F0004FEACC0CE1440B6848F80C30DFF8BCB1E4
:10B400004B68594ADEED007A9EED017ADFF8B08193
:10B41000C9F8043007981055E3440198DFF8A4C137
:10B4200008F8040002988BED017A4FF001080CF83F
:10B43000048096F8028080F80280584897F802C08D
:10B4400090F8028003988AF802C095F802C080F84C
:10B4500002C053489EED027A90F802C00498414B16
:10B4600080F802808868DDF81480C9F80800E87860
:10B4700001904A4888F802C097F803808AF8038050
:10B4800090F80380029896F803C0CBED007A8BED1C
:10B49000027ADEED037A1C7080F803C0DFF800C189
:10B4A00001989CF803C0CDF800C0DDF80CC09EEDFB
:10B4B000057A8CF80300049895F804C080F803809E
:10B4C00097F80480CDF81880DDF81480009888F88B
:10B4D0000300C868C9F80C0006988AF804000298AE
:10B4E00096F8048080F80480DDF80C802B4888F8FA
:10B4F00004C0CBED037ADFF8A4C0DEED047A95F842
:10B5000005E0274D40799CF804C095F80580069029
:10B5100028790D6976797F79CDF804C0C9F8105083
:10B52000DDF808C0039D8CF80560DDF810C0019EB1
:10B530008CF80460059E496985F805E0069DC9F808
:10B5400014108AF8057007998CF80550307186F848
:10B550000580CBED047A8BED057AA646C8E600BFE0
:10B56000C4000120F8000120240F0120B00A0120AE
:10B570001C140120980F012034050120DC0001205B
:10B580001800002090C00020F857012048580120E2
:10B59000205801202C0F0120285801206857012035
:10B5A000F4010120500F0120000F0120C457012099
:10B5B000DC0E0120740F01204C0E0120080A01202E
:10B5C000980A0120A00A01202DE9F04F8BB0044613
:10B5D000FFF794FB034B1D5D012D05D00BB0BDE8BB
:10B5E000F08F00BFA00A0120CB49CC4ACC4B125DA2
:10B5F000085D1A704FEA440801F07AFC4146DFF812
:10B6000064C3C8489CF800C0C74ECDF81CC0214494
:10B610004B001844DFF814C340781CF803C0C34F34
:10B62000CDF820C01E4402907678C148DFF82CC3C4
:10B6300046701F449C44F6B2BE487F78CDF818800F
:10B640000196DFF8E482B74E47709CF801C0BA4813
:10B6500018F80380CDF824C016F803C0029E467087
:10B66000CDF81480B248059E0670B448DFF8F88221
:10B67000DFF8F892DFF8F8A2B14ADFF8F8B2DFEDB0
:10B68000B17AF6B20670B0480670AA48089E0670F5
:10B69000AE48F6B20670AE48C90088440670AD48A0
:10B6A000D8ED006A98ED017A099E467009EB03080F
:10B6B000A94E98F80180CAED006A86F8018019F851
:10B6C000038086F8008002EB01085658A348D8F89A
:10B6D0000410DFF8A482C35CC8F8006096489D4E51
:10B6E000C8F80410DDF81C8080F800C0BCF1000F21
:10B6F00033709648964E9A49CBED007AFFB208BF58
:10B70000984647707770CDF81C808F48DFF82C8200
:10B71000029E019F8AED017A4FF0000C81F800C073
:10B7200014BF6346012388F801704770CBED017A9E
:10B7300081F801C01EB90BB9099F07972B46069ED9
:10B74000DFF8E4C1DFF8E881784F764D26447000D9
:10B75000844407449CF802C088F802C0DFF8DC810A
:10B76000BF785FFA8CFC88F802C0DFF8DC8188F8CB
:10B7700002C0DFF8C081DFF8E4C188F80270DFF8AA
:10B78000CC81FFB288F80270DFF8C481F60088F837
:10B790000270DFF8D4819719054446448444D6EDFD
:10B7A000027ADFF8B081BE68634FAD789CF802C0C2
:10B7B000BD70484488F802C0674FDFF8BC818078CC
:10B7C000B870C8F8086000200026CAED027ACBF8ED
:10B7D000086088701DB90BB9CDF81CC00123069E06
:10B7E000DFF844C1DFF84881504F4E4D26447000C9
:10B7F000844407449CF803C088F803C0DFF83C8108
:10B80000FF785FFA8CFC88F803C0DFF83C8188F889
:10B8100003C0DFF82081DFF844C188F80370DFF847
:10B820002C81FFB288F80370DFF82481F60088F8D5
:10B830000370DFF834819719054446448444D6EDFB
:10B84000037ADFF81081FE683B4FED789CF803C067
:10B85000FD70484488F803C03F4FDFF81C81C07872
:10B86000F870C8F80C6000200026CAED037ACBF807
:10B870000C60C8701DB90BB9CDF81CC00123069E21
:10B88000DFF8A4C0DFF8A880284F264D26447000BA
:10B89000844407449CF804C088F804C0DFF89C8006
:10B8A0003F795FFA8CFC88F804C0DFF89C8088F848
:10B8B00004C0DFF88080DFF8A4C088F80470DFF8E7
:10B8C0008C80FFB288F80470DFF88480F60088F876
:10B8D0000470DFF894809719054446448444D6EDFB
:10B8E000047ADFF870803E69134F2D799CF804C00C
:10B8F0003D71484488F804C0174FDFF87C80007918
:10B900003871C8F8106000200026CAED047ACBF820
:10B910001060087132E000BF980A0120240F012056
:10B92000C4000120DC0E0120500F0120000F012077
:10B93000F857012048580120685701204857012036
:10B940004C0E0120000000005057012058570120E4
:10B950006057012020580120F40101202C0F012004
:10B9600028570120FE010120080A0120740F012040
:10B97000C457012030570120285801201DB90BB9A8
:10B98000CDF81CC00123069D2F4EDFF8E4802F4F19
:10B99000DFF8E0C02544680006440744767988F85B
:10B9A0000560DFF8D4807F79804484444844DFF820
:10B9B000CC909CF805C04079ED002A444D44D5ED6B
:10B9C000057A98F80550DFF8B88052690392F6B20C
:10B9D00088F80560DFF8AC801D4A88F805601D4EC8
:10B9E0005771DFF8A480CAED057AFFB277711A4E5D
:10B9F00088F80570DFF89480184F86F805C0184E57
:10BA000088F8050000224FF0000903984A717D7103
:10BA10007061CBF814903A46BCF1000F0CD0114F76
:10BA2000079E3E700BB913783B700F4A0F4B147092
:10BA30001C700BB0BDE8F08F07980A49002B08BFB7
:10BA400028460870F1E700BF500F0120000F0120C9
:10BA500048580120585701206857012020580120DC
:10BA600028580120FE01012018000020F8000120C4
:10BA7000F8570120DC0E01202C0F0120080A0120BC
:10BA8000485701205057012060570120F401012040
:10BA9000024B185C431E584258417047A00A0120CF
:10BAA00030B45C4D5C4A2B78DFED5C7AD900C81865
:10BAB00002EBC00090ED007AB4EE677AF1EE10FA76
:10BAC00007D190ED017AB4EE677AF1EE10FA00F04A
:10BAD00097800020CC1802EBC40494ED037ADFEDCC
:10BAE0004F7AB4EE677AF1EE10FA06D194ED047A4B
:10BAF000B4EE677AF1EE10FA78D0CC1802EBC404F9
:10BB000094ED067ADFED457AB4EE677AF1EE10FA3D
:10BB100006D194ED077AB4EE677AF1EE10FA5BD0B5
:10BB2000CC1802EBC40494ED097ADFED3C7AB4EE54
:10BB3000677AF1EE10FA06D194ED0A7AB4EE677ADC
:10BB4000F1EE10FA3ED0CC1802EBC40494ED0C7A5E
:10BB5000DFED327AB4EE677AF1EE10FA06D194EDA9
:10BB60000D7AB4EE677AF1EE10FA21D00B4402EBB5
:10BB7000C30292ED0F7ADFED297AB4EE677AF1EE27
:10BB800010FA11D192ED107AB4EE677AF1EE10FA54
:10BB90000AD192ED117AB4EE677AF1EE10FA03D180
:10BBA00000232B7030BC70470028F9D130BC70479F
:10BBB00094ED0E7AB4EE677AF1EE10FA04BF01301C
:10BBC000C0B2D3E794ED0B7AB4EE677AF1EE10FAD7
:10BBD00004BF0130C0B2B6E794ED087AB4EE677ADC
:10BBE000F1EE10FA04BF0130C0B299E794ED057A86
:10BBF000B4EE677AF1EE10FA04BF0130C0B27CE710
:10BC000090ED027AB4EE677AF1EE10FA14BF0020DC
:10BC100001205FE7C4000120380501200000C84270
:10BC20000E4A0F4B032170B4117299070D4A07D1C8
:10BC3000186819795B7910601171537170BC704785
:10BC40001E785D789C78D87819795B791670557074
:10BC50009470D0701171537170BC7047F80001205E
:10BC600068570120A80A0120224B234AF0B403F5AB
:10BC7000677452F8041F43F8041BA342F9D11F4B09
:10BC80001F4A03F5906452F8041F43F8041BA342B3
:10BC9000F9D11C4B1C491A781C4D1D4C09782D7884
:10BCA000052A84BF00221A70A5544C1E62426241CC
:10BCB00001285A7003D000221A72F0BC7047154A4E
:10BCC0001549900709D10C680879497914601071F9
:10BCD000517100221A72F0BC70470F784E788D783F
:10BCE000CC7808794979177056709570D4701071B6
:10BCF0005171E0E7B00A01201C140120980F0120C7
:10BD000034050120F8000120DC000120C4000120DE
:10BD1000240F012068570120A80A0120054B06497D
:10BD20000122052008721A705A709A70DA701A711E
:10BD30005A71704768570120F8000120F0B4D04BC9
:10BD4000D04A19781278002941D1CF49CF484D887F
:10BD50008F88CE88CE4CADB200EB8505D5ED006A5C
:10BD6000B9B2B6B200EB8101F2EE047A00EB8600C4
:10BD700091ED007A90ED006A66EEA76A27EE277AC9
:10BD8000FCEEE66A66EE277A16EE905ABCEEC77AAB
:10BD9000FCEEE77A17EE100A17EE901AADB206EE37
:10BDA000105A89B280B207EE901AF8EE466A06EE93
:10BDB000100A02EBC201B8EE467AF8EE677A04EB9D
:10BDC000C101C1ED006A81ED017AC1ED027A5978B5
:10BDD000002941D1AC49AD484D888F88CE88AC4C04
:10BDE000ADB2B9B2B6B200EB850500EB810100EB54
:10BDF000860090ED006AD5ED006A91ED007AF2EED2
:10BE0000047A66EEA76A27EE277A66EE277AFCEEBA
:10BE1000E66ABCEEC77AFCEEE77A16EE905A17EEA9
:10BE2000100A17EE901AADB289B280B207EE901ADE
:10BE300007EE105A06EE100AF8EE476A02EBC2014E
:10BE4000B8EE467AF8EE677A04EBC101C1ED036AF9
:10BE500081ED047AC1ED057A9978002941D18A49AA
:10BE60008A484D888F88CE88894CADB2B9B2B6B2B7
:10BE700000EB850500EB810100EB860090ED006A88
:10BE8000D5ED006A91ED007AF2EE047A66EEA76ACB
:10BE900027EE277A66EE277AFCEEE66ABCEEC77AD2
:10BEA000FCEEE77A16EE905A17EE100A17EE901A8B
:10BEB000ADB289B280B207EE901A07EE105A06EEC4
:10BEC000100AF8EE476A02EBC201B8EE467AF8EEC5
:10BED000677A04EBC101C1ED066A81ED077AC1ED15
:10BEE000087AD978002941D1674968484D888F88F8
:10BEF000CE88674CADB2B9B2B6B200EB850500EBA7
:10BF0000810100EB860090ED006AD5ED006A91EDAD
:10BF1000007AF2EE047A66EEA76A27EE277A66EEDA
:10BF2000277AFCEEE66ABCEEC77AFCEEE77A16EEFC
:10BF3000905A17EE100A17EE901AADB289B280B27D
:10BF400007EE901A07EE105A06EE100AF8EE476A4E
:10BF500002EBC201B8EE467AF8EE677A04EBC10153
:10BF6000C1ED096A81ED0A7AC1ED0B7A19790029D0
:10BF700041D1454945484D888F88CE88444CADB263
:10BF8000B9B2B6B200EB850500EB810100EB86008B
:10BF900090ED006AD5ED006A91ED007AF2EE047A38
:10BFA00066EEA76A27EE277A66EE277AFCEEE66A47
:10BFB000BCEEC77AFCEEE77A16EE905A17EE100A3E
:10BFC00017EE901AADB289B280B207EE901A07EE62
:10BFD000105A06EE100AF8EE476A02EBC201B8EEFC
:10BFE000467AF8EE677A04EBC101C1ED0C6A81ED87
:10BFF0000D7AC1ED0E7A5B79002B4DD12249234B8E
:10C000004C888888CD882249A4B280B2ADB203EBB7
:10C01000840403EB800003EB850393ED006AD4ED09
:10C02000006A90ED007AF2EE047A66EEA76A27EED7
:10C03000277A66EE277AFCEEE66ABCEEC77AFCEE5B
:10C04000E77A16EE904A17EE100A17EE903AA4B26D
:10C0500080B29BB207EE104A07EE900A06EE103A45
:10C06000F8EE476A02EBC202B8EE677AF8EE467A5B
:10C0700001EBC202C2ED0F6A82ED107A0AE000BF46
:10C0800068570120C40001201002012098C0002040
:10C0900038050120C2ED117AF0BC7047194B59895F
:10C0A0009A890131042A30B459811FD002F001006D
:10C0B0001549DC890969134D11F0040F4EF2010195
:10C0C00008BF4FF4604141EA440189B2D98120B1EF
:10C0D000B1F57F4F10D030BC70474EF20F0399423C
:10C0E000F9D10132AA81688130BC704700210A462B
:10C0F000998159810846DBE701320023AA816B81CF
:10C1000030BC7047F80001200004024010B51A4C02
:10C11000238A01339BB242F210729342238227D0CA
:10C12000638A072B0FD0D807144A18D5118A89B211
:10C13000B1F57A6F06D901339BB200212182D9076C
:10C1400063820CD510BD0E4B1B78012B0CBF002059
:10C15000012000F0CDFE0023084A63822382128A68
:10C1600092B2632AEED8013300226382228210BD8C
:10C17000002363822382D6E7F800012020020120F9
:10C1800090C000201C4B9A8A013292B242F2107188
:10C190008A4210B49A822BD0DA8A072A11D0D407A7
:10C1A00016491AD5488880B2B0F57A6F06D901329F
:10C1B00092B200209882D007DA820ED55DF8044B47
:10C1C00070470F480D49047814F1FF344FF0000216
:10C1D00018BF01240470DA829A82498889B26329DF
:10C1E000ECD801320021DA8299825DF8044B704765
:10C1F0000022DA829A82D2E7F800012010020120A0
:10C20000DC000120414B424A424942EA0300084314
:10C2100080072DE9F00F35D13F4DD3F800A03F4CFA
:10C220003F4893F8049093F80580D1F800C00F7947
:10C2300091F805B016681179C5F800A0527985F813
:10C2400004904FF00F0A85F80580C4F800C02771EC
:10C2500084F805B006600171427183F800A083F88C
:10C2600001A083F802A083F803A083F804A083F858
:10C2700005A02C492C4B0120062208701A70BDE83D
:10C28000F00F7047244C254E18785F78244D93F8B2
:10C2900002B093F803A091F8008091F801C093F8E0
:10C2A0000490207067708878CF7884F802B084F8A2
:10C2B00003A091F804B092F800A084F8049086F8E6
:10C2C000008092F8019092F8028086F801C0B07068
:10C2D00092F803C0F7700F20177986F804B085F83C
:10C2E00000A085F8019085F8028085F803C01870D9
:10C2F00058709870D8702F714F7951795A79187198
:10C300007771697162715871B3E700BF20580120DD
:10C31000F85701204858012018140120C4170120A3
:10C32000BC1701201001012000010120394A3A49BF
:10C330002DE9F84F394B3A4E3A4D42EA01041C437D
:10C3400014F0030F384C29D1D6F8009096F80480E9
:10C3500096F805A0D5F800C02F7995F805B02668A5
:10C3600025796479C1F8009081F8048081F805A0EE
:10C37000C2F800C0177182F805B01E601D715C71B3
:10C380002A4B00221A7008B9BDE8F88FFEF70CF9A5
:10C39000FEF7D2F8BDE8F84FFEF72EBD96F800A0E4
:10C3A00096F8019096F8028096F803C0377996F8CF
:10C3B00005B081F800A02E7895F801A081F80190D1
:10C3C00081F8028095F8029095F8038081F803C007
:10C3D0000F7195F804C081F805B0167082F801A0BD
:10C3E000277894F801B0A178E67894F804A06D79E4
:10C3F00082F8029082F8038082F804C01F7083F8EC
:10C4000001B09970DE7083F804A0557162795A7199
:10C41000B6E700BF4858012020580120F8570120F6
:10C4200018140120C4170120BC17012000010120AD
:10C43000F8B5504D504C6988606889B2FBF782FFAF
:10C44000642808DD6B889BB207EE103AF8EE477A55
:10C450006360C4ED077AA988A068464F464E89B24A
:10C46000FBF770FF642808DDBB889BB207EE103A2B
:10C47000F8EE477AB360C6ED087AE988E0683D4F88
:10C480003D4E89B2FBF75EFF322808DDFB889BB288
:10C4900007EE103AF8EE477AF360C6ED097A29897B
:10C4A0002069344E344D89B2FBF74CFF322808DD49
:10C4B00033899BB207EE103AF8EE477A2B61C5ED4F
:10C4C0000A7A22782C4B002A53D1D3ED073A93ED08
:10C4D000084ADFED2A4A9FED2A6A93ED095ADFEDFB
:10C4E000297AD3ED0A5ADFED286A284A284B9FEDB6
:10C4F000297A2948294904780878294963EEA44A09
:10C5000024EE066AFCEEE44ABCEEC66A25EE275A23
:10C5100016EE106A14EE905AF6B2EDB2BCEEC55AA1
:10C5200065EEA66A02EB850502EB860295ED006AD0
:10C53000D2ED0B7A15EE105AFCEEE66A66EE277A1B
:10C54000EDB216EE902A03EB850567EE877AD2B23C
:10C5500095ED007A03EB820367EE877A93ED007A1C
:10C56000152367EE877A13FB040301EB8303C3ED06
:10C57000007AF8BD1002012010010120DE3A2F3BA5
:10C5800030A03F3B75644F3C0E745A3B4055010848
:10C5900098C00020A5E96B3A48580120F8570120BF
:10C5A0002014012030B4084C084804F56775084B86
:10C5B000224653F8041B42F8041B8342F9D1543439
:10C5C000AC42F4D130BC7047201401207000002030
:10C5D0001C0000205B4B9A8E013292B242F2107125
:10C5E0008A422DE9F00F9A865CD0DA8E142A0FD099
:10C5F000D5074CD554490969880506D5013292B250
:10C6000000219986D107DA8641D5BDE8F00F704741
:10C610004E4A4F494F4841EA02040443A40745D11A
:10C620004D4ED2F800A04D4D4D4C92F8049092F82A
:10C630000580D0F800C0077990F805B0C6F800A0D2
:10C64000086891F804A086F80490497986F8058076
:10C650004FF00F09C5F800C02F7185F805B02060B4
:10C6600084F804A0617182F8009082F8019082F849
:10C67000029082F8039082F8049082F8059039487D
:10C6800000220624012104701970DA869A862E4948
:10C69000096911F40071B8D10132DA869986BDE8D2
:10C6A000F00F70470022DA869A86A1E72A4D2B4FB9
:10C6B00092F8009092F80180947892F803C0284E86
:10C6C00090F800A092F804B085F8009085F80180F9
:10C6D00090F8019090F80280AC7085F803C0C4789F
:10C6E00090F804C085F804B087F800A091F800B075
:10C6F00091F801A087F8019087F8028091F80290E4
:10C7000091F80380FC7087F804C00F2491F804C0EE
:10C7100086F800B086F801A086F8029086F80380BB
:10C72000147054709470D47086F804C090F805C0EA
:10C7300048795179147187F805C070716971547125
:10C740009DE700BF10010120000C0240205801208D
:10C75000F85701204858012018140120C41701205F
:10C76000BC170120000101202DE9F047784CDFF8CB
:10C77000F881DFF8F8A19CB006460021204606F0BB
:10C7800039FE2046002106F0F3FE4046002106F067
:10C79000EBFC06F0D1FD6F48012106F037F94FF4AC
:10C7A0008070012106F062F900254FF4806C4FF48F
:10C7B000006E4FF00F094FF480724FF40033404683
:10C7C0000F960DA901264FF40057CDF84CC0CDF8B7
:10C7D00050E016921793CDF838A015970D95109547
:10C7E000129518951A951B95CDF84490199606F058
:10C7F00071FC3146404606F0B7FC4FF440324FF42E
:10C80000A06303A804921CAF06930395059506F058
:10C81000D7FD204607A907958DF820608DF8216087
:10C8200009950A950B958DF8309006F093FDEF234E
:10C8300047F86C3D4FF0030A394647488DF80B50D6
:10C840008DF808A005F058FC3F2339464348019372
:10C8500005F052FC39464248CDF804A005F04CFCE6
:10C86000394640233F48019305F046FC20462946BF
:10C870003246062306F0F6FD204631460222062304
:10C8800006F0F0FD204652460221062306F0EAFD9E
:10C89000204651460422062306F0E4FD06212046E8
:10C8A0000B46052206F0DEFD062220461346072130
:10C8B00006F0D8FD20460A210722062306F0D2FD05
:10C8C00020460B210822062306F0CCFD20460C2131
:10C8D0000922062306F0C6FD20460D210A22062362
:10C8E00006F0C0FD20460E210B22062306F0BAFDFD
:10C8F000204649460C22062306F0B4FD20460521B9
:10C900000D22062306F0AEFD204608210E22062346
:10C9100006F0A8FD062320464A46092106F0A2FD9E
:10C920002A464046102106F0A3FC2046314606F078
:10C9300029FE2046314606F01BFE2046314606F011
:10C9400059FD204606F0DAFD1CB0BDE8F08700BFB7
:10C9500000200140070040000000024000080240A3
:10C960000004024000140240106402404C200140C8
:10C970002DE9F04F594CDFF86C81DFF86C919DB0D8
:10C9800006460021204606F035FD2046002106F02F
:10C99000EFFD4046002106F0E7FB4FF48000012147
:10C9A00006F034F84FF48060012106F05FF8202093
:10C9B000012106F02BF800254FF4006C4FF4005EC7
:10C9C00001274FF480724FF4003340460F960DA9B3
:10C9D00007264FF0806A4FF4806BCDF850C0CDF839
:10C9E00054E016921793CDF83890CDF834A01095F6
:10C9F000129518951A951B951196CDF84CB019976C
:10CA000006F068FB3946404606F0AEFB4FF4403274
:10CA10004FF4A06303A8049206930395059506F0CE
:10CA2000CFFC204607A907958DF820708DF821705E
:10CA300009950A950B958DF8306006F08BFC1CA9C2
:10CA40004FF47E7341F86C3D4FF0030924488DF894
:10CA50000B508DF8089005F04FFB20463A463346C0
:10CA6000042106F0FFFC204633460921022206F08D
:10CA7000F9FC20464A4633460E2106F0F3FC2046D8
:10CA800033460F21042206F0EDFC052120463346F3
:10CA90000A4606F0E7FC0621204633460A4606F021
:10CAA000E1FC334620463146324606F0DBFC2A469E
:10CAB0004046102106F0DCFB2046394606F062FDB8
:10CAC0002046394606F054FD2046394606F092FCD1
:10CAD000204606F013FD1DB0BDE8F08F0022014096
:10CAE00000140240286402404C220140024A034BD9
:10CAF00032F820201A8370479C550108001002402C
:10CB0000024A034B32F820205A8370479C55010893
:10CB100000100240014B6F221A8370470010024040
:10CB2000014B6F225A8370470010024005280AD03B
:10CB3000084A094B02EB80001A6983691A4214BF44
:10CB4000002001207047054B186980F40040C0F3B5
:10CB5000C03070479C550108000C0240001802408C
:10CB60002DE9F04F102089B0012105F04FFF724DE3
:10CB7000DFF8D091DFF8D0B1704F714EDFF8CC8183
:10CB80000121042005F042FF03A801244FF0000A10
:10CB900005F012FB03A92846702203928DF810407D
:10CBA0008DF811A08DF812A08DF813A005F0A4FA4D
:10CBB0006F22284603A9039205F09EFA284603A98E
:10CBC0008023039305F098FA802303A94846039332
:10CBD00005F092FA2146402005F018FF4FF4FC4280
:10CBE00003A95846039205F087FA2146402005F034
:10CBF0000DFF6C22584603A903928DF810408DF862
:10CC000011A08DF812A08DF813A005F075FA214639
:10CC10004A2005F0FBFE2146042005F0F7FE4FF404
:10CC2000807203A93846039201928DF810A08DF806
:10CC300011A08DF8134005F05FFA03A930460823D0
:10CC4000039305F059FA284603A94FF400730393A0
:10CC500005F052FA384603A941F20F03039305F099
:10CC60004BFA4FF40043584603A903934FF4804B0B
:10CC700005F042FA384603A9CDF80CB005F03CFAAD
:10CC8000019A0392284603A905F036FA0425304696
:10CC900003A9039505F030FA384603A94FF4004381
:10CCA000039305F029FA4FF400430222484603A9F2
:10CCB00003938DF8132005F01FFA484603A9CDF819
:10CCC0000CB005F019FA4022304603A9039205F092
:10CCD00013FA8023304603A9039305F00DFA214689
:10CCE000284605F0B7FE1E2202A88DF808208DF810
:10CCF00009A08DF80A408DF80B4006F009FD05A843
:10CD000006F08EFE05A940464FF47A720692ADF801
:10CD100014A0ADF81CA0ADF816A006F033FE4046F6
:10CD20002146224607F00CFB4046214606F0DAFE7B
:10CD300009B0BDE8F08F00BF00100240000C0240B7
:10CD400000040240000802400018024000080040B1
:10CD500070B5012184B0042005F07CFE012400257B
:10CD60001E23134E8DF8003068468DF801508DF863
:10CD700002408DF8034006F0CBFC01A806F050FEFF
:10CD80004FF47A7301A930460293ADF80450ADF820
:10CD90000C50ADF8065006F0F5FD3046214622460F
:10CDA00007F0CEFA3046214606F09CFE04B070BD76
:10CDB0000008004008B501212D4807F0E3FA2D4A8C
:10CDC0002D4B1269198812F4004F4EF2010218BF60
:10CDD0004FF4604242EA410292B202F03F013C2924
:10CDE0001A8041D0234A598810694EF2010210F48A
:10CDF000804F18BF4FF4604242EA410292B202F003
:10CE00003F013C295A802BD01C4A998810694EF268
:10CE1000010210F0400F18BF4FF4604242EA410295
:10CE200092B24FF6F8718A429A8015D0134AD98887
:10CE300010694EF2010210F0800F18BF4FF46042EB
:10CE400042EA410292B24FF6F8718A42DA8002D188
:10CE50000B4B01221A7008BD0A4A01211170E5E747
:10CE6000094A01211170CFE7084A01211170B9E781
:10CE70000008004000080240480101200004024070
:10CE8000CC170120CD170120CF170120CE1701208C
:10CE9000F0B4A0B1B1F90070B1F90250B1F9046079
:10CEA000B1F90640043805EB074504EB064480B2AF
:10CEB00042F8045B083143F8044B0028EAD1F0BC87
:10CEC000704700BF70B480B10439043A51F8045F70
:10CED00052F8044F5D8004382D14261480B21D8052
:10CEE000DC809E8008330028F0D170BC704700BF02
:10CEF000024A034B01211170187070475401012040
:10CF0000C0180120074B8022B0F1B04FCCBF1A836C
:10CF10005A83054B8022B1F1B04FCCBF1A835A839C
:10CF2000704700BF00100240000802402DE9F04F9A
:10CF3000A84CA94D2378ADF24C5D0B91002B40F02D
:10CF400023852B780F2B40F20B85A44FA44A099719
:10CF500001233B7013700146A24AA34B4020FFF708
:10CF600097FFFCF7C3FC03F051F8DDF824C09CF8F0
:10CF70000080B8F1000F40F0EC8494F800E0DFF896
:10CF8000A8C2DFF8A892DFF8A8A2984FDFED987A40
:10CF9000984E00240CF6D42B2046295C964AA1F129
:10CFA0001003DBB2EE2B135C9CBF0F2129540A2B1C
:10CFB00084BF0A231354914A135C8B4224D08F4BB5
:10CFC000002219543B460432B2F55C7F43ED027AED
:10CFD00043ED017AE3EC017AF5D1BEF1010F00F0E7
:10CFE0003283BEF1000F12D1002940F05184844AEF
:10CFF0008449854BA150A3510130062804F1040453
:10D0000007F52567C9D10DE0B8F1000FD7D1013080
:10D01000062804F1040407F52567BED1BEF1010F0F
:10D0200000F01E8312A9794ADFED793A794BDFF8D7
:10D0300004829FED793A07920A910691002211B27B
:10D04000052900F32B8275496B4C515CA45C04915B
:10D05000059411469000724C2044D0ED007AF4EE15
:10D06000E37AF1EE10FA00F19982F4EEC37AF1EE70
:10D0700010FA40F369859FED5E7AF7EE007A049D21
:10D08000059F5C4C5E4854F82140DFF8ACA150F895
:10D0900021005AF821A005F1010EC7EB87165FFAAF
:10D0A0008EFE032717FB0565BEF1140F28BF4FF056
:10D0B000140EAD0017FB0E66B60005F1040E04EB6E
:10D0C0000E0C06F1040904EB090BDCED004ADBED64
:10D0D000005A06F1080C04EB0C0B05F108079BED58
:10D0E000006A04EB070BDBED006A04EB050B9BED1C
:10D0F000004A344494ED005A67EE244A67EE266AEB
:10D1000027EE044A40F6E17481448444864407448F
:10D110000644A2452844E7EEA54AE7EE866AD9ED23
:10D12000005A9CED001A96ED006A9EED002AD7ED9C
:10D13000002AD0ED001AA7EE854A00F27B82DFF8C4
:10D14000BCC027EE866A67EEA55A67EE817A0CEBC3
:10D150008A0AA7EE216AE7EE025AE7EE227A9AEDF2
:10D16000027AB7EE005A35EE475A26EE056A65EEAA
:10D17000855A27EE855A0498059C2A4F4FEA4009A4
:10D1800006464FEA041A4E44C4EB0A04B6002401D2
:10D190004FF4256000FB01F03519054406443D4479
:10D1A0003444A7EE265A38190E4ED0ED006AA7EE89
:10D1B000046AE7EE245A95ED017A049D15F001000A
:10D1C000094D40F0F081DDF818C04FF0800E934615
:10D1D00036E000BF90C000202058012054010120FB
:10D1E000C018012010180120D0170120CC180120F0
:10D1F0000000000050180120485801207000002055
:10D20000A81801200C03020838F80108AC0101201D
:10D210006F12033B00100240EE7C7F3FF857012065
:10D22000C4570120C4180120C011030820BB020804
:10D23000287A02080008024028580120B0EE677AD8
:10D240002C58325807EE904AF8EEE74A65EEE67A37
:10D25000B2F1B04FE4EE867AD4BFA3F81AE0A3F897
:10D2600018E00430E7EE457AB4F1B04FD4BFA8F827
:10D270001AE0A8F818E077EEE64A4028F0EE476A90
:10D28000ECEC014ADAD15A46059D049CC5EB0A0034
:10D290004C444FF42565A400000105FB01F165181D
:10D2A00004442144284438440F4480ED007AC7EDFB
:10D2B000017A069D013240350C2A06957FF4BFAEF7
:10D2C0000DF1300CCDF820C0CD4BCE4A93F8009034
:10D2D000CD4CCDF8109092F800C0CC4DDFEDCC5A7B
:10D2E000DFF848B3DDF828E0DDF8209004F14008CD
:10D2F000002344F8043B45F8043BBCF1000F6DD01B
:10D30000C44FC54EC548059449467246B7EE006AFB
:10D3100031E0D2ED607AD2ED006A67EE277A36EE20
:10D32000477ADC07E7EE267A30D415ED013AD0EDE6
:10D33000006AB8EEC37AA7EEA67ABDEEC77A17EEFA
:10D3400010AA0AF31F0A45F804AC91ED007AF5EE35
:10D35000C07AF1EE10FAD4BF67EEC77A67EE877A2B
:10D360000133062BE6EC017A01F1040100F104001F
:10D3700002F1400220D0B7EC017AB5EE407AF1EE2E
:10D3800010FAC6D1DC07D2ED007ACED5059CD0EDDF
:10D39000006A54F8044C039403EE104AB8EEC37AC2
:10D3A000059CA7EEA67ABDEEC77A17EE10AA0AF37F
:10D3B0001F0A44F804ACC8E7059C44450EF1040E6E
:10D3C00096D10B9B9049914A4020FFF77BFD099D28
:10D3D00000232B700DF24C5DBDE8F08F04980028FF
:10D3E00070D08C4F8C4E8D480594494672466346EA
:10D3F000B7EE006A31E0D2ED607AD2ED006A67EEF6
:10D40000277A36EE477ADC07E7EE267A30D415ED38
:10D41000013AD0ED006AB8EEC37AA7EEA67ABDEE67
:10D42000C77A17EE10AA0AF31F0A45F804AC91ED6B
:10D43000007AF5EEC07AF1EE10FAD4BF67EEC77A43
:10D4400067EE877A0133062BE6EC017A01F10401DD
:10D4500000F1040002F14002AED0B7EC017AB5EE63
:10D46000407AF1EE10FAC6D1DC07D2ED007ACED5C3
:10D47000059CD0ED006A54F8044C029403EE104A67
:10D48000B8EEC37A059CA7EEA67ABDEEC77A17EE72
:10D4900010AA0AF31F0A44F804ACC8E7911FC9B2E6
:10D4A000079C88000444D4ED007AF5EE407AF1EE52
:10D4B00010FA3FF4FEAE5A4D5A4C6D5C645C049514
:10D4C0000594C8E50346534F534E544805944946C6
:10D4D0007246B7EE006A3BE0DC07D2ED007A90EDD1
:10D4E000007A4AD5059C54F8044C019403EE104A86
:10D4F00027EE877AF8EEC36A059C77EE266AFDEE82
:10D50000E66A16EE90AA0AF31F0A44F804ACB4EED9
:10D51000E57AF1EE10FA04DD434C3BF823A0A4F8C1
:10D5200018A091ED007AF5EEC07AF1EE10FACCBFBA
:10D5300067EE877A67EEC77A0133062BE6EC017A4D
:10D5400001F1040100F1040002F140023FF434AFA4
:10D55000B7EC017AB5EE407AF1EE10FABCD0D2ED1C
:10D56000607AD2ED006A67EE277A36EE477ADC07FA
:10D57000E7EE267A90ED007AB4D415ED013A27EE65
:10D58000877AF8EEC36A77EE266AFDEEE66A16EE53
:10D5900090AA0AF31F0A45F804ACB8E7B7EE007A80
:10D5A000DFED237A6BE5DDF818E000208024B44637
:10D5B000AB4601E0B0EE677A5CF800505BF80060C3
:10D5C00007EE905AF8EEE74A65EEE67AB5F1B04F0D
:10D5D000E4EE867ACCBF1C835C830430E7EE457AA8
:10D5E000B6F1B04FCCBFA8F81840A8F81A4077EEB3
:10D5F000E64A4028F0EE476AEEEC014ADAD143E60B
:10D60000DC0001200001012068180120A45601203F
:10D610000000A04EAC010120E4560120C801012009
:10D620005057012058570120001802401C5501088E
:10D63000000000001FED025AB7EE007AF0EE455AE6
:10D64000B0EE456A97E5002940F05481D84BA351CC
:10D650000130062804F1040407F525677FF49DAC2A
:10D6600012AB00270A9304933BB2D24C07940DF1FE
:10D67000300C052B9FEDD01ADFEDD01ADFEDD03A3C
:10D680009FEDD04A9FEDD02AD04ED14DCDF820C08D
:10D6900000F3EA80CF48D04B10F807C017F803809A
:10D6A000BE46FBB2CD494FEA8E021144D1ED007A5D
:10D6B000F4EEC17AF1EE10FA00F1E9819FEDC87A3B
:10D6C000F4EEC77AF1EE10FA40F31E82DFEDDB6A6A
:10D6D000F7EE007AC348C44950F82E0051F82E10D6
:10D6E000DFF850A3C14CDFEDC22A9FEDC23ADFED57
:10D6F000C25A9FEDC27A06EE100AB8EE466A1520AD
:10D7000066EE214A08F1010B10FB0C895FFA8BFBD6
:10D71000BBF1140F28BF4FF0140B01EB8909FCEE8D
:10D72000E44A10FB0CB099ED005ADFF80C9314EEAC
:10D7300090BA01EB8001D1ED004A66EE856A0AEBF2
:10D740008B0AE7EEA46AA1184FEA0C109AEDC85AAA
:10D750000690F7EE007AF0EE674AE5EE634A4FEA8C
:10D760004804059432EEC66AB0EE645AD1ED004A20
:10D7700066EEA46AF0EE424AE5EE634A4444CCEB1E
:10D780000000F4EEC46AF1EE10FA4FF4256188BF90
:10D79000F0EE446AA400000101FB0EF1A6EE257A2A
:10D7A00004EB000B0C44E6EE834A2044089C5944E9
:10D7B00022444944484413F00103C2ED007A64EE68
:10D7C000874A91ED016A90ED007A8D498D4A04985F
:10D7D00040F0E88080248A46934601E0B0EE676A14
:10D7E0005AF803205BF8031067EE267A03EE102A3E
:10D7F000E6EE057AB2F1B04FD8BF7483F8EEC35AA3
:10D80000C8BF3483E5EEE47AB1F1B04F03F104030D
:10D81000D4BF6C832C83402BA7EEE67AE0EC017A30
:10D82000DCD1059A06984FF425614244CCEB000305
:10D830001B0101FB0EFE9200D11872441A4401EB49
:10D840000E034B449144C3ED017A89ED007AC3ED98
:10D85000027A049A013740320C2F04923FF434AD1F
:10D860003BB2052B7FF716AFBB1F0799DBB201EB6D
:10D870008302D2ED007AF5EE407AF1EE10FA9E4680
:10D88000E7D06149614A11F8038012F803C009E743
:10D89000012900F00181022900F0088103297AD0D2
:10D8A000042900F01F81052900F02681062900F0D7
:10D8B0000F81072900F00581082900F02D81092931
:10D8C00000F05C810A2900F038810B2900F02E81DC
:10D8D0000C2900F04C810D2900F042810E294C4AA0
:10D8E00000F038814B494C4BA15000222A54A351DF
:10D8F000FFF782BB012900F0D680022948D0032916
:10D9000000F0ED80042900F00481052900F0F18089
:10D91000062900F0D380072900F00581082900F0CE
:10D920003481092900F037810A2900F031810B295F
:10D9300000F03D810C2900F037810D2900F0318184
:10D940000E2900F02B810F297FF461AB334BA351DB
:10D950007EE6334B93F800E084F800E0FFF70FBB5E
:10D960006B780F2B3FF6F1AAAB780F2B3FF6EDAAA1
:10D97000EB780F2B3FF6E9AA2B790F2B3FF6E5AAA0
:10D980006B790F2B3FF6E1AA264F0997FFF7E3BA11
:10D99000254BA3515CE61E4A2449254BA150A351B7
:10D9A000FFF72ABB00234FF0800BBA464AE000BFC6
:10D9B000CC550108AC0101206F12033B6EDB363FF2
:10D9C000CDCCCC3D2D8DA73F60E5D03D0010024071
:10D9D0000008024048580120F8570120C457012090
:10D9E000EE7C7F3F2858012050180120E05701208D
:10D9F00000008045A69B443B0000803AB81E853F4E
:10DA000010180120D017012050570120585701202D
:10DA1000A81801200C03020838F80108201401207E
:10DA2000C018012054010120746B0108044402084D
:10DA30003039020880800020C41801200000000056
:10DA4000B0EE676AD458CF5867EE267A03EE104AD4
:10DA5000E6EE057AB7F1B04FC8BFA6F818B0F8EEF9
:10DA6000C35AD8BFA6F81AB0E5EEE47AB4F1B04FC5
:10DA700003F10403CCBFA5F818B0A5F81AB0402BE9
:10DA8000A7EEE67AE0EC017ADAD15746C9E6F7EE7E
:10DA9000006A5FED167A1DE6464A4749474BA1509A
:10DAA000A351FFF7A9BA464BA351D1E5454B414AD3
:10DAB000A35103F6D423A350FFF79EBA424BA351C0
:10DAC000C6E53C4A4149424BA150A351FFF794BAE5
:10DAD000384B404944F806A0E150FFF78DBA3E4B61
